:020000040800F2
:1000000040310020AD0100081B210008F71900084D
:10001000192100081D0500088D24000800000000BB
:10002000000000000000000000000000CB210008DC
:100030001F050008000000001D210008EF21000836
:10004000C7010008C7010008C7010008C701000870
:10005000C7010008C7010008C7010008C701000860
:10006000C7010008C70100082D050008C7010008E6
:10007000C7010008C7010008C7010008C701000840
:10008000C7010008C7010008C70100080000000000
:10009000000000000000000000000000C701000890
:1000A000C7010008C7010008C7010008C701000810
:1000B000C7010008C7010008C7010008C701000800
:1000C000C7010008C7010008C7010008C7010008F0
:1000D000C7010008C7010008C701000800000000B0
:1000E00021050008C7010008C70100080000000042
:1000F000000000000000000000000000C701000830
:1001000000000000C7010008C7010008C70100087F
:1001100000000000000000000000000000000000DF
:10012000C7010008C7010008C7010008C70100088F
:10013000C7010008000000000000000000000000EF
:10014000000000000000000000000000C7010008DF
:10015000C7010008C7010008C7010008C70100085F
:10016000C7010008C70100080000000000000000EF
:10017000000000000000000000000000000000007F
:1001800000000000C701000800000000000000009F
:10019000C7010008DFF810D000F0A4F800480047BD
:1001A000B9320008AFF30080403100200648804794
:1001B00006480047FEE7FEE7FEE7FEE7FEE7FEE74C
:1001C000FEE7FEE7FEE7FEE7912200089501000842
:1001D0002DE9F05F0546002092469B46884606467C
:1001E000814640241BE0284641464746224600F00F
:1001F00069F853465A46C01A914110D31146184621
:10020000224600F050F82D1A67EB01084F462246AF
:100210000120002100F047F817EB00094E41201E95
:10022000A4F10104DFDC484631462A464346BDE8D6
:10023000F09F40EA01039B0703D009E008C9121FA1
:1002400008C0042AFAD203E011F8013B00F8013B90
:10025000521EF9D27047D2B201E000F8012B491EBC
:10026000FBD270470022F6E710B513460A46044653
:100270001946FFF7F0FF204610BD30B50B4601468A
:1002800000202022012409E021FA02F59D4205D335
:1002900003FA02F5491B04FA02F52844151EA2F1DF
:1002A0000102F1DC30BD202A04DB203A00FA02F121
:1002B000002070479140C2F1200320FA03F3194354
:1002C00090407047202A04DB203A21FA02F00021F6
:1002D000704721FA02F3D040C2F120029140084356
:1002E00019467047064C074D06E0E06840F00103F0
:1002F00094E8070098471034AC42F6D3FFF74EFF5E
:10030000F49D0108149E010870B50025012801D94B
:10031000AD1E12E00A4951F8202000EB00110948F7
:1003200000EB810440F82120204602F07BF82046B3
:1003300001F0DCFE08B16FF00305284670BD000037
:10034000180000201006002000F0C8BA70B50E4852
:1003500000240168B1B1491E016013D10B48016846
:1003600021F4001101600A4D8115284600F016F9AC
:100370006915284600F012F9064800F0B5FA08B1F0
:100380006FF00704204670BD0C000020403802408A
:1003900000040240BC0500200D4910B50B48086060
:1003A0000C4800240168491C016001290CD108484F
:1003B00000F0B5FA40B9064801F01EFB044801F010
:1003C00009FE08B16FF00704204610BD005400403C
:1003D000BC0500200C0000203EB54FF480558DE890
:1003E0002C000A46014600241023084800F05EFB5A
:1003F00048B1064800F091FA042802D06FF0650475
:1004000001E06FF0030420463EBD0000BC05002063
:100410003EB54FF480558DE82C000A460146002475
:100420001023074800F03EFC28B1054800F075FA9B
:10043000042802D0241F20463EBD6FF06504FAE771
:10044000BC05002001490120087070470000002011
:100450002DE9F041044617480E46002550F82400C7
:100460008047012E23D11348001F50F82410124852
:1004700000EBC400064600F071F82F1F40B90D488C
:1004800000210C3850F82420304600F07FF808B1E5
:100490003D460CE0074800220838A0F1080650F855
:1004A0002410305700F002FD305700F0F1FC2846D0
:1004B000BDE8F081344600081C00002010B5002083
:1004C000FFF7C0FF10BD000030B5124C87B000250B
:1004D000206840F0040020602068142100F004002F
:1004E00005906846FFF7BEFE206840F004002060DB
:1004F0002068694600F0040005904FF40050009019
:100500004FF40410CDE90105034800F0F1F807B0FD
:1005100030BD00003038024000080240FEE770475E
:10052000014800F021B800001C000020102000F05D
:10053000D3B872B6FEE7000070B5044600F0CEF9FD
:100540000546601C02D004480078044400F0C6F957
:10055000401BA042FAD370BD6000002010B10160C2
:1005600000207047012070470178074B01F01F0100
:1005700001228A401968114204D01A60406800289C
:1005800000D0004770470000143C014003460020A3
:1005900009B1012070475A60704700002DE9F04F03
:1005A0000022DFF808B101264FF00F0906FA02F425
:1005B00001EA0403A34274D122F003075F44D7F891
:1005C000088895074FEA157C09FA0CFA0AEA08052B
:1005D000DFF8DC80404502D14FF000081DE0DFF875
:1005E000D480404502D14FF0010816E0DFF8C88002
:1005F000404502D14FF002080FE0DFF8C0804045CF
:1006000002D14FF0030808E0DFF8B480404502D182
:100610004FF0040801E04FF0070808FA0CF8A8456D
:1006200022D1284DD5F800C02CEA030CC5F800C033
:100630002D1DD5F800C02CEA030CC5F800C0214DD3
:100640000C35D5F800C02CEA030CC5F800C02D1FEE
:10065000D5F800C02CEA030CC5F800C0D7F808583C
:1006600025EA0A05C7F80858056857000323BB4068
:100670009D430560D50800EB8505D5F820C05707D8
:100680004FEAD76809FA08F72CEA070CC5F820C02A
:10069000C5689D43C5604568A543456084689C4323
:1006A0008460521C102A81D3BDE8F08F00300140D5
:1006B000000002400004024000080240000C02401A
:1006C00000100240003C0140102802D101490120E5
:1006D0000870704708000020044910B50A680242FB
:1006E00002D00860FFF7F0FF10BD0000143C01408D
:1006F0002DE9F84FDFF8B8A10022012403254FF0BF
:100700000F090AF1040BAAF1040E00BF0B6804FAEA
:1007100002F63340B34273D10F7907F00307012F7C
:1007200001D0022F16D187684FEA420805FA08FC6B
:1007300027EA0C07D1F80CC00CFA08FC4CEA070CAD
:10074000C0F808C04768B7430E79C6F30016964054
:100750003E4346600E79F643B6070DD0C768560093
:1007600005FA06FC27EA0C07D1F808C00CFA06FCCB
:100770004CEA070CC0F80CC00E7906F00306022EF6
:1007800010D1D60800EB8608D8F8206057074FEA4A
:10079000D76C09FA0CF7BE430F6907FA0CF7374319
:1007A000C8F8207006684FEA420C05FA0CF7BE4301
:1007B0000F7907F0030707FA0CF7374307604E6815
:1007C00016F4403F6DD03B4E376847F480473760A2
:1007D000366822F0030706F480460096364E07EB93
:1007E000060CDCF8086897073F0F09FA07F826EAB5
:1007F0000806DFF8C880404503D14FF000081EE02E
:100800004FE0DFF8BC80404502D14FF0010816E010
:10081000DFF8B080404502D14FF002080FE0DFF86A
:10082000A880404502D14FF0030808E0DFF89C8023
:10083000404502D14FF0040801E04FF0070808FAE4
:1008400007F848EA0608CCF80888DAF80060574646
:10085000D1F804C09E435FEACC2C00D51E433E6015
:10086000DBF800605F46D1F804C09E435FEA8C2C41
:1008700000D51E433E60DEF800607746D1F804C024
:100880009E435FEA8C3C00D51E433E60084F083F04
:100890003E68D1F804C09E435FEACC3C00D51E43BD
:1008A0003E60521C102AFFF431AFBDE8F88F000003
:1008B000083C014044380240003001400000024042
:1008C0000004024000080240000C024000100240F8
:1008D0000AB1816170470904FBE7000001488068A4
:1008E000704700006000002010B5040013D02420E1
:1008F00084F83D002068016821F001010160204674
:1009000000F068FA0020206484F83D0044F8300FBD
:10091000A073207310BD012010BD006C704790F8CB
:100920003D00704770B5040025D094F83D000025C7
:1009300020B984F83C50204600F04DFA242084F879
:100940003D002068016821F0010101602068016814
:1009500041F4004101602068016821F40041016018
:1009600000F018FC4D4A6168914201D84C4900E002
:100970004C49884201D2012070BD4B492368B0FB2D
:10098000F1F15E6826F03F060E435E6063689342B5
:1009900006D94FF4967359434FF47A73B1FBF3F1D0
:1009A0002368491C1E6A26F03F06314319626168BC
:1009B000914210D84900401EB0FBF1F2521CC2F324
:1009C0000B02042A01D2042022E0B0FBF1F0401C0B
:1009D000C0F30B001CE0A268F2B301EBC10303EB10
:1009E0000116431EB3FBF6F35B1C43F480431B0567
:1009F00049D092B301EBC10202EB0111401EB0FBE2
:100A0000F1F0401CC0F30B0040F4804040F4004083
:100A10002168CA694CF6FF739A431043C861D4E950
:100A2000071001432068026822F0C00211430160F0
:100A3000D4E9030101432068826848F2FF339A43F6
:100A400011438160D4E9050108432168CA6822F096
:100A5000FF021043C86001E00EE016E02068016864
:100A600041F0010101602564202084F83D002563E8
:100A700084F83E50002070BD01EB4106431EB3FBDD
:100A8000F6F35B1CB3E70120C2E701EB4101401E16
:100A9000B0FBF1F0401CC0F30B00B7E7A0860100EB
:100AA00080841E0000093D0040420F002DE9FF4FE9
:100AB00083B09A46DDE9119793460446DDF84080FD
:100AC000FFF70CFF054694F83D00202870D119234C
:100AD000012271492046009501F0D0F80028F5D197
:100AE00094F83C00012863D0012084F83C00206881
:100AF0000168C90703D1016841F001010160206864
:100B0000016821F400610160222084F83D0040204A
:100B100084F83E0000262664C4F82480A4F82A90B5
:100B2000608D20855D48E062CDE9007553465A46E8
:100B30002046049900F0AAFF00287CD1208DD0B176
:100B4000012821D00228206824D0416980690090C2
:100B5000208D032869D801282BD0514902283B4613
:100B60004FF00002009559D08846204601F086F8E3
:100B7000002860D13CE020684169816900910168EA
:100B800041F40071016077E02068016821F4806120
:100B90000160F0E7016821F480610160206801686C
:100BA00041F400610160206841698069009063E060
:100BB0006FE02A463946204601F0DFF898BB2068EE
:100BC0000069616A08704EE02068016841F40071B4
:100BD000016020680069616A0870606A401C606298
:100BE000218D491E2185618D491E6185216838E06E
:100BF0002068016821F48061016020680069616AF1
:100C00000870606A401C6062208D401E2085608DE7
:100C1000401E60853B46002241460095204601F07B
:100C20002DF800B9D0E706E0FFE72A46394620460E
:100C300001F0A3F818B1012007B0BDE8F08F2068DB
:100C40000069616A0870606A401C6062218D491EFB
:100C50002185618D491E618521684A69D243520709
:100C60000AD409690170606A401C6062208D401ED0
:100C70002085608D401E6085208D00287FF468AF40
:100C8000202084F83D0084F83E6084F83C60002019
:100C9000D2E70220D0E70000020010000000FFFFB2
:100CA000040001002DE9FF4F83B09A46DDE911975A
:100CB00093460446DDF84080FFF710FE054694F8A1
:100CC0003D0020287FD1192301224049204600956C
:100CD00000F0D4FF002876D194F83C00012872D0AF
:100CE000012084F83C0020680168C90703D101682D
:100CF00041F0010101602068016821F40061016098
:100D0000212084F83D00402084F83E00002626641F
:100D1000C4F82480A4F82A90608D20852C48E062D5
:100D2000CDE9007553465A462046049900F02CFF41
:100D300070B930E02A463946204601F051F858B1E2
:100D4000206C042804D12068016841F4007101601E
:100D5000012007B0BDE8F08F606A21680078086163
:100D6000606A401C6062218D491E89B22185628DB6
:100D7000521E628522685369DB435B070BD469B15D
:100D800000781061606A401C6062208D401E2085E2
:100D9000608D401E6085208D0028CBD12A463946C3
:100DA000204600F045FF0028CAD154F83D0B0168E9
:100DB00041F400710160202004F81E09E67766778F
:100DC0000020C6E7FFE70220C3E700000200100092
:100DD0000000FFFF704770470248816802781144A5
:100DE00081607047600000200B4810B5016841F435
:100DF00000710160016841F480610160016841F4A3
:100E000080710160032000F071F8002000F006F806
:100E100000F024F8002010BD003C024070B50D4DDC
:100E200004464FF47A712878B1FBF0F00A4909685A
:100E3000B1FBF0F000F0DFFC48B9102C07D2002223
:100E40002146501E00F032F800206C6070BD012079
:100E500070BD0000600000206C0000200B4882B0D4
:100E6000016841F480410160006800F48040009016
:100E70000648001F016841F080510160006800F0E1
:100E800080500090072002B000F030B84438024093
:100E9000002809DB00F01F02012191404009800079
:100EA00000F1E020C0F8001170470000F0B40E4BD4
:100EB0001B680C46C3F30223C3F10705042D00D9B8
:100EC0000425191D072901D2002300E0DB1E01269D
:100ED00006FA05F1491E214099409E40761E1640B3
:100EE0003143F0BC01F0DEBD0CED00E0064900F03E
:100EF000070208684FF6FF03184040EA0220034A41
:100F000010430860704700000CED00E00000FA0597
:100F10002DE9F843044600684FF00109C1074FF07E
:100F2000000601D1400727D5DFF81C81C8F86860AA
:100F3000FFF7D4FC0746454D05E000BFFFF7CEFCA8
:100F4000C01B022857D828680001F7D460688101C7
:100F5000207A41EA00703D4984310860C8F8689001
:100F6000FFF7BCFC074604E0FFF7B8FCC01B0228F3
:100F700041D828680001F7D52078800752D533483A
:100F80004030016841F0805101600068304D00F050
:100F900080500090286840F480702860FFF79EFC25
:100FA000074604E0FFF79AFCC01B022823D82868F4
:100FB000C005F7D5254D7035286810F4407020D055
:100FC000A18901F4407181421BD0286820F440714E
:100FD0002048C0F80090066029602868C00710D03B
:100FE000FFF77CFC064641F2883707E0FFF776FC06
:100FF000801BB84202D90320BDE8F8832868800727
:10100000F4D5E1681148C1F301220830032A12D057
:10101000016821F4F81101602868A189C1F30B016E
:10102000084328602078000703D50B49207CC1F8CD
:10103000E0010020E0E70268084B22F4F8121940B2
:101040000A430260E8E7000000004742003802401F
:1010500000700040400E474200104742FFFCFF0F67
:101060002DE9F0470E46050065D0DFF81481D8F869
:101070000000F7B200F00700B04207D288F8007015
:10108000D8F8000000F00700B04254D128683D4C69
:10109000810712D5400703D5206840F4E050206056
:1010A0002878000703D5206840F46040206020685D
:1010B000A96820F0F000084320602878C0072DD0F0
:1010C000304968680839012812D0022813D0032853
:1010D00011D00968890700292DDA216821F0030160
:1010E00001432160FFF7FAFB814641F2883A0EE0A6
:1010F00009688903EFE709688901ECE7FFF7EEFB70
:10110000A0EB0901514502D90320BDE8F087206812
:10111000696800F00C00B0EB810FEFD1D8F8001037
:10112000404601F00701B14207D90770006800F09E
:101130000700B04201D00120E7E72878400705D535
:101140002068E96820F4E050084320602878000710
:1011500006D52068296920F4604040EAC10020607B
:1011600000F038F82168084AC1F30311515CC84007
:101170000649086006480068FFF750FE0020C4E7F3
:10118000003C024008380240749D01086C000020B9
:10119000640000200448054900680968044AC1F356
:1011A0008221515CC84070476C0000200838024022
:1011B000849D01080448054900680968044AC1F390
:1011C0004231515CC84070476C0000200838024032
:1011D000849D0108154810B5006810F00C021448F1
:1011E00013D04110042A0FD0082A0ED10F4C241F0F
:1011F0002268236802F03F025B0207D52068C0F333
:101200008810A0FB010106E0084610BD2168C1F36B
:101210008811A1FB00010023FEF7DAFF2168C1F36A
:101220000141491C4900B0FBF1F010BD08380240F3
:101230000024F4002DE9F84F04006ED02078DFF888
:101240004C93C007A9F104054AD009F104000168D4
:10125000C1F38101012908D00068C0F38100022890
:101260000AD1D9F80000400206D52868800337D596
:1012700060680028E1D033E06068B0F5803F10D0AE
:10128000B0F5A02F286810D020F48030286028689E
:1012900020F4802028606068A8B1FFF71FFB064695
:1012A0000DE0286840F48030F4E740F480202860A6
:1012B000F7E700BFFFF712FB801B642873D828688C
:1012C0008003F7D50CE0FFF709FB064605E000BFF9
:1012D000FFF704FB801B6428F0D828688003F7D44C
:1012E0002078DFF8AC8280074FF0000A3ED5A7488F
:1012F000001D016811F00C0F08D00068C0F38100D8
:1013000002280BD1D9F80000400207D428688007D2
:1013100016D5E068012800D112E033E1E068B8B1E9
:101320000120C8F80000FFF7D9FA064605E000BF23
:10133000FFF7D4FA801B0228C0D828688007F7D5A9
:101340002868216920F0F80040EAC10028600DE01B
:10135000C8F800A0FFF7C2FA064604E0FFF7BEFA9D
:10136000801B02281FD828688007F7D42078000740
:1013700022D5864F87486169703771B101210160BC
:10138000FFF7ACFA064604E0FFF7A8FA801B022834
:1013900009D838688007F7D50EE0C0F800A0FFF73D
:1013A0009DFA064605E082E0FFF798FA801B0228C6
:1013B0007DD838688007F7D42078400768D5DFF8F3
:1013C000CCB100270BF13C0BDBF80000C0000BD4C4
:1013D000DBF8001041F08051CBF80010DBF8000082
:1013E000012700F0805000906B4E3068C00510D48B
:1013F000306840F480703060FFF770FA009005E0CC
:10140000FFF76CFA0099401A022850D83068C005DE
:10141000F6D55E4EA0686C3601280FD005283068DE
:1014200010D020F001003060306820F004003060FF
:10143000A068B8B1FFF752FA00900FE0306840F0B2
:101440000100F4E740F004003060F7E7FFF746FAE8
:101450000099411A41F28830814266D8306880078D
:10146000F4D50EE0FFF73AFA009007E0FFF736FAFE
:101470000099411A41F28830814256D8306880077D
:10148000F4D42FB1DBF8001021F08051CBF800101C
:10149000A069C8B33D49091D0968C1F3810102294A
:1014A0004AD00228504607D0C8F8600000E03CE06F
:1014B000FFF714FA04463BE04746C8F86000FFF720
:1014C0000DFA064605E000BFFFF708FA801B022868
:1014D0002BD828688001F7D4D4E907010843A16A12
:1014E0002E4A490802EB0141626A41EA821108432F
:1014F00094F82C1040EA0161C9F800100120386608
:10150000FFF7ECF9044606E03EE000BFFFF7E6F91E
:10151000001B022809D828688001F7D534E000BFF5
:10152000FFF7DCF9001B022802D90320BDE8F88F81
:1015300028688001F4D427E00128F7D0D9F800000A
:10154000E26900F4800191421CD1226A00F03F015F
:10155000914217D147F6C071626A0140B1EB821F18
:1015600010D1A26A4FF0FF3300F4403103EB520276
:10157000B1EB024F06D194F82C1000F07060B0EB84
:10158000016F01D00120D1E70020CFE704380240ED
:1015900000004742800E4742007000400000FFFFFD
:1015A00010B5040002D0607F10B106E0012010BD2C
:1015B00000202077204600F039F80220607721686B
:1015C000CA204862216853204862204600F0B4FDDA
:1015D00030BB20688168144A1140816021688868A6
:1015E00062681043D4E904231A43104388602168D9
:1015F000E068086120680169228941EA02410161CD
:10160000204600F0BDFD58B921680A6C22F4802202
:101610000A6421680A6CA3691A430A64012161778C
:101620002268FF21516210BDBFFF8FFF10B586B049
:10163000044614216846FEF715FE094920688842D1
:101640000CD102200090000203906846FFF760FC76
:1016500008B1FEF76EFF03490120086006B010BD17
:10166000002800403C0E474270B50446007F0B4600
:10167000012819D00126267702206077B2B1987828
:10168000D97840EA014558781978000240EA41309B
:1016900005432168CA2048622168532048622046D9
:1016A00000F04AFDD0B122E0022070BD5878C1069A
:1016B00003D500F0EF000A305870D87800F02FFD05
:1016C0000204587800F02BFD42EA0022987800F0DE
:1016D00026FD0243187842EA4035DAE7074805401C
:1016E00020684560204600F04BFD00B9667722680F
:1016F000FF2151620021217770BD00003FFFFF00F4
:101700002DE9F0410446007F0D46012823D04FF01B
:10171000010884F81C800220607720680027806818
:101720004FEA4060D2B1002800DBEF70A87829783A
:1017300040EA01466878E978000240EA81500643B1
:101740002168CA204862216853204862204600F080
:10175000F3FCB8B12CE00220BDE8F081002800DBEA
:10176000EF70287800F0DBFC0204687800F0D7FC0A
:1017700042EA0022A87800F0D2FC0243E87842EA6C
:101780008056DDE70D4806402068066020688168C5
:1017900021F480218160D5E90301084321688A682A
:1017A00010438860204600F0EBFC08B984F81D80E7
:1017B0002268FF2151622777CEE700007F7F7F00FC
:1017C00070B504460068C16821F0A001C160FFF750
:1017D00085F805464FF47A7607E000BFFFF77EF8FC
:1017E000401BB04201D9032070BD2068C06880064C
:1017F000F4D5002070BD10B5401EB0F1807F01D33C
:10180000012010BD4FF0E02460610F21601701F04E
:1018100049F90020A06107202061002010BD70B5AB
:10182000040004D094F83D00002510B106E001202A
:1018300070BD84F83C50204600F022F8242084F843
:101840003D002068C16821F40051C160204600F0CD
:1018500027FD2068016921F49041016120684169F8
:1018600021F02A0141612068C16841F40051C16042
:101870002564202084F83D0084F83E00002070BDDF
:10188000704700002DE9F84F044690F83E009A4654
:1018900016460D46202853D1FDB1F6B194F83C0010
:1018A00001284DD0012084F83C0000272764222025
:1018B00084F83E002763FFF711F8A6858146E68588
:1018C000A0684FF48058404501D1206940B12E46B0
:1018D0005FF0000584F83C7027E00120BDE8F88F38
:1018E0000026F7E74B46002220212046CDF800A035
:1018F00000F05CFD08B10320F0E726B1A068404588
:101900001BD038B108E020684068C0F3080025F813
:10191000020B07E0206980B12068406800F07F007A
:1019200006F8010BE08D401EE085E08D0028D9D13E
:10193000202084F83E000020D0E720684068EFE7D0
:101940000220CBE72DE9F843044690F83D001F46FE
:1019500016460D4620284CD1C5B1BEB194F83C00C6
:10196000012846D0012084F83C004FF00008C4F85C
:101970004080212084F83D00FEF7B0FFA684814618
:10198000E684A068B0F5805F03D004E00120BDE8E4
:10199000F883206928B12E465FF0000584F83C806A
:1019A0000EE00026FAE78021204600F0FFFCA0B9F7
:1019B000AEB116F8010B21684860E08C401EE0844F
:1019C000E08C4B464FF0000200970028EBD14FF01F
:1019D0004001204600F0EAFC30B10320D7E735F89B
:1019E000020BC0F30800E6E7202084F83D00002049
:1019F000CDE70220CBE7FEE72DE9F041154886B0A0
:101A0000016841F0020101600068122400F0020048
:101A100005904FF480700125032604278DE8F1001E
:101A2000DFF8348069464046FEF762FE68028DE8C2
:101A3000F10069464046FEF75BFE0648103001683B
:101A400041F400110160006800F40010059006B038
:101A5000BDE8F081303802400004024001684A6964
:101A6000D24352050FD46FF480624A61002140F8DE
:101A7000301F202242738173026942F00402026126
:101A80000173012070470020704700002DE9F84FD6
:101A90000446006889460B9D01689846174641F444
:101AA000806101602068016841F4807101600095E7
:101AB0004FF0011B0022594620460A9B00F0DEF839
:101AC0004FF4007A40B120680068C00501D5C4F821
:101AD00040A00320BDE8F88F216809F0FE000861EE
:101AE0002B46284920460A9A00F0FCF8F0BB2068F3
:101AF0004169806900902A4620460A9900F070F9F1
:101B000040B1206C04283AD12068016841F400718A
:101B1000016034E0FEB2B8F1010F09D02168380A43
:101B200008612A4620460A9900F05AF90028E8D1AF
:101B3000206806612A4620460A9900F051F90028DB
:101B4000DFD12068016841F48071016000950022B6
:101B5000594620460A9B00F091F80028B3D121682D
:101B600009F0FF0040F00100086100E007E02B46AB
:101B7000044920460A9A00F0B5F80028AAD00120AE
:101B8000A8E70000020001002DE9F84304460068C0
:101B90000D46DDE9089701689846164641F48071C4
:101BA00001604B4600224FF001112046009700F0E3
:101BB00065F848B120680068C00502D54FF4007090
:101BC00020640320BDE8F883216805F0FE00086169
:101BD0003B464A461549204600F084F888B92068FB
:101BE0004169806900903A464946204600F0F8F87D
:101BF00048B1206C042804D12068016841F40071C8
:101C000001600120DEE7F5B2B8F1010F09D02168CB
:101C1000300A08613A464946204600F0E1F80028BB
:101C2000E7D1206805610020CCE700000200010038
:101C300070B516460D4604460DE02046FFF70EFF30
:101C400008B1012070BD681C05D0FEF747FE801B5F
:101C5000A84207D835B120684069C0434007ECD49A
:101C6000002070BD002044F8300F20216173A07364
:101C7000216941F0200121612073E2E72DE9F0475D
:101C80001E4690460D460446C1F30747DDF82090F6
:101C900008E0701C06D0FEF721FEA0EB0900B04260
:101CA0000FD876B12068012F18D0806925EA00008E
:101CB0000004000C14D000214145EAD00020BDE80A
:101CC000F087002044F8300F20216173A073216950
:101CD00041F02001216120730120F0E74069E5E730
:101CE0000121E9E72DE9F0479A4691460E46044660
:101CF00000254FF02008C1F3074725E02068406920
:101D0000C043400514D42068016841F400710160AB
:101D100021686FF480604861256384F83D8084F811
:101D20003E50206C40F00400206484F83C501FE0DA
:101D3000B9F1FF3F08D0FEF7D1FDA0EB0A014945FC
:101D40000CD8B9F1000F09D02068012F13D0806999
:101D500026EA00000004000C0BD0CFE744F8305F07
:101D600084F80D80A573206940F020002061257360
:101D70000120BDE8F0874069EAE72DE9F041002540
:101D800090460E460446202717E04069C043C0062F
:101D90000CD454F8301B6FF01000486144F810590F
:101DA0006777A577206A2062257717E0FEF796FD12
:101DB000A0EB0800B04208D83EB120684169C94391
:101DC0004906E2D40020BDE8F08144F8305F677333
:101DD000A573206940F02000206125730120F2E7FF
:101DE00070B516460D4604460DE02046FFF736FE58
:101DF00008B1012070BD681C05D0FEF76FFD801B87
:101E0000A84207D835B120684069C0430006ECD429
:101E1000002070BD002044F8300F20216173A073B2
:101E2000216941F0200121612073E2E71CB501A97D
:101E3000012000F07DFB2049012000F041FB1E48FD
:101E400001211030002501601E2141600521C0E9FB
:101E5000021501460561012000F01AFB0121084628
:101E600000F07EFB154C606018B115A000F00AFE72
:101E7000FEE71D4E4FF0FF370F490120243100F0DF
:101E800037FB606018B90C48243001F023FA306841
:101E90000068C0F3401058B18DF800503B46012255
:101EA00069461148FFF7EEFC9DF8000001F0C8F903
:101EB000C820FEF741FBDFE794000020000000206F
:101EC000564C35334C3841315F52414E47494E47AD
:101ED0005F53454E534F525F537461727420666175
:101EE000696C65640A00000010060020F0B587B038
:101EF00014216846FEF7B6F933480024016841F022
:101F000004010160016801F004010591016841F0DC
:101F100080010160016801F080010591016841F0D4
:101F200001010160016801F001010591016841F0C2
:101F3000020101600068254E00F0020005900022B9
:101F400020213046FEF7C4FC012280213046FEF7F6
:101F5000BFFC1F4F012211463846FEF7B9FC002294
:101F600040213846FEF7B4FC102000904FF40410D6
:101F7000CDE9010469463046FEF7BAFBA020009087
:101F80000125CDE90154694630460394FEF7B0FBC4
:101F900041200090CDE90154694638460394FEF78C
:101FA000A7FB002211460A20FEF780FF0A20FEF759
:101FB0006FFF002211462820FEF778FF2820FEF749
:101FC00067FF07B0F0BD000030380240000002405B
:101FD0000004024010B50A49016000240949C0E923
:101FE00001144FF48042C0E9034244618461C4613A
:101FF0000462FEF797FC00B10124204610BD0000EA
:1020000000540040801A060010B586B014216846BE
:10201000FEF728F91B48002419490594C0E900146B
:102020007F218160FF21C0E9031444618461FFF7CF
:10203000B7FA08B172B6FEE78DF800408DF801409E
:102040008DF802400394012269460E480494FFF77C
:1020500057FB08B172B6FEE701208DF814008DF829
:1020600015008DF8160002468DF8174005A90548A1
:10207000FFF7FAFA002801D072B6FEE706B010BDED
:10208000002800407400002010B50020FEF73CF945
:1020900001210020FEF7DCF9012000F041FA064999
:1020A0000028486006D005A000F0ECFC0D4800F0C8
:1020B000E9FCFEE710BD000000000020564C35335F
:1020C0004C3841315F52414E47494E475F53454E70
:1020D000534F525F496E6974206661696C65640A8A
:1020E000000000008C9D0108FFF7A0FE10B5094913
:1020F000016000244FF4E121C0E901140C22C46006
:10210000C0E904428461C461FFF789FB00B1012486
:10211000204610BD00440040FEE7FEE77047002166
:1021200003E0491C0A38C9B2C0B20A28F9D209072B
:1021300040EA1160704700002DE9F0410446006854
:102140000025C168490618D4C16841F08001C1600A
:10215000FEF7C4FB06464FF47A78042707E000BF79
:10216000FEF7BCFB801B404501D96777012520683D
:10217000C068400601D4002DF2D02846BDE8F081A9
:1021800070B5044600680025C16821F08001C16077
:1021900020688068800606D42046FFF711FB10B146
:1021A000042060770125284670BD70B504888568D5
:1021B00001232046A847C0B270BD70B50588846869
:1021C0009BB22846A047C0B270BD704730B5002210
:1021D0000AE083181C889D7864BA240444EA052424
:1021E000DD782C431C60121D8A42F2D330BDFEF70D
:1021F000F3BD000030B593B030216846FEF732F8E9
:1022000014210CA8FEF72EF81F480024016841F0A5
:1022100080510160006800F0805011901B480168F7
:1022200021F4404141F4004101600068102100F4B4
:10223000404011900A2000900120CDE903010225C1
:102240000794CDE905054FF4A870CDE908100420E6
:102250000A9007200B906846FEF7ECFF08B172B6B3
:10226000FEE70F20CDE90C054FF48050CDE90E407C
:1022700002210CA81094FEF7F3FE002801D072B6DC
:10228000FEE713B030BD000040380240007000404F
:102290000248016841F470010160704788ED00E078
:1022A00070B5044600680169E26821F440511143A9
:1022B00001612169A068E26908436169114308432B
:1022C0002168CA6849F20C639A430243CA602068D5
:1022D0004169A26921F4407111434161314920688B
:1022E000884202D03049884202D1FEF763FF01E004
:1022F000FEF750FFE2690023192164253226B2F56A
:10230000004F626828D0A0FB0101930F9200FDF7F7
:102310005FFF0146B0FBF5F06FF01802504301EB90
:10232000800006EB0010B0FBF5F000F0F002B1FB0E
:10233000F5F002EB0012B1FBF5F06FF01803584313
:1023400001EB800006EB0010B0FBF5F000F00F0091
:1023500021681044886070BDA0FB010192185B41A8
:10236000FDF736FF0146B0FBF5F00201B1FBF5F0D9
:102370006FF01803584301EB800006EBC000B0FB80
:10238000F5F000F0F80002EB4002B1FBF5F0584325
:1023900001EB800006EBC000B0FBF5F000F0070099
:1023A000D6E7000000100140001401402DE9F04183
:1023B000984617460E460446069D27E0681C25D021
:1023C0002DB1FEF78BFAA0EB0800A8421ED92068B9
:1023D0000C3050E8001F21F4D07140E80012002AB0
:1023E000F5D12068143050E8001F21F0010140E8C9
:1023F0000012002AF5D1202084F83D0084F83E0028
:10240000002084F83C000320BDE8F08120680068CB
:1024100036EA000004D00020B842CFD00020F3E715
:102420000120F9E7F0B5174887B00024016841F4AE
:1024300000310160006800F4003005901148103848
:10244000016841F0010101600068022500F001000F
:10245000059004200090CDE9015407260A4FCDE9EC
:10246000034669463846FEF743F908200090CDE957
:102470000154CDE9034669463846FEF739F907B0FD
:10248000F0BD00004038024000000240FEE70000BE
:1024900010B5032802D36FF0010010BD064A52F8B0
:1024A0002000064A126812699047002802DA6FF08D
:1024B000040010BD002010BD240D00205C00002091
:1024C00010B5032802D36FF0010010BD064A52F880
:1024D0002000064A1268D2689047002802DA6FF09E
:1024E000040010BD002010BD240D00205C00002061
:1024F00010B5032802D36FF0010010BD064A52F850
:102500002000064A1268D2699047002802DA6FF06C
:10251000040010BD002010BD240D00205C00002030
:10252000032802D36FF00100704700F06FB900007C
:1025300010B5032802D36FF0010010BD064A52F80F
:102540002000064A126892689047002802DA6FF06D
:10255000040010BD002010BD240D00205C000020F0
:1025600010B5032802D36FF0010010BD064A52F8DF
:102570002000064A1268126A9047002802DA6FF0BB
:10258000040010BD002010BD240D00205C000020C0
:1025900010B5032802D36FF0010010BD064951F8B1
:1025A000200006490968496A8847002802DA6FF066
:1025B000040010BD002010BD240D00205C00002090
:1025C0002DE9F84F0C46002790B18CB121687E1E92
:1025D00000F11805FF290FD06946284601F0ABF934
:1025E0000020214982464FF001099DF8003022E089
:1025F0006FF00100BDE8F88F0021284601F060FD72
:102600002EE03046F6E700BF00EB400C01EB8C02F9
:10261000907282F8089094F8008082F8098082F81D
:102620000BA0D4F8048041F82C80D4F808C0401CDA
:10263000C0B2C2F804C09842E6D300EB400001EB00
:102640008000817A41F0800181720749284601F0BB
:10265000C5FC40EA07040121284601F031FD204372
:102660000028CED1C6E70000540600202DE9F05F17
:1026700007000C464FF000056FF001003CD0002C25
:102680003AD0217894F80890D4F804A0012910D009
:10269000022910D0032910D004292DD1402103266E
:1026A00007F11800834601F001FE4FF0FF38B0B982
:1026B00006E0102102E01021F1E740210126EFE7BA
:1026C0003146584601F0BDFD48B95146584601F023
:1026D00046FD20B94946584601F0A3FD08B14546DC
:1026E00009E0E06800B1012087F85009206900B1D5
:1026F000012087F851092846BDE8F09F6FF00300DC
:10270000704770B5040006D094F84C094FF0FF35BF
:10271000012803D005E06FF0010070BD60688047BC
:1027200008B1284670BD002084F84C0970BD20B166
:1027300019B100890860002070476FF001007047F0
:1027400048B141B14020086001200022C1E90102E6
:10275000C860104670476FF00100704770B5040004
:102760000D466FF0010016D0002D14D094F84D09DD
:1027700078B194F84E0901280ED00021204601F0CE
:1027800009FC002807D129462046BDE8704001F029
:10279000E5B84FF0FF3070BD41F28831EEE738B553
:1027A0000C4648B144B16946183000F0DBFF30B147
:1027B00000202060401E38BD6FF0010038BD9DF83C
:1027C00000002060002038BD70B5040006D094F8E9
:1027D0004C094FF0FF3520B1284670BD6FF0010065
:1027E00070BD04F1180001F02DF90028F4D184F82F
:1027F0004D0984F84E0984F84F0984F8500984F88B
:102800005109012084F84C09002070BD2DE9F041E8
:1028100088B004465220ADF80800224800902248B3
:10282000019022480390224804902248059040F2EB
:1028300055202149604301EB80000546694600F0C0
:1028400079F86FF0040618B1304608B0BDE8F081A1
:10285000DFF86C80184F19490C3FC8F8001047F892
:102860002450284606A900F02FF80028ECD106983D
:10287000A0F570410C3902D06FF00600E5E7D8F8FA
:10288000001057F824004546096888470028DBD126
:10289000296857F82400CA680A4990470028D3D10C
:1028A000D3E70000990300084D0300081104000855
:1028B000D903000849030008300D0020240000203F
:1028C0005C0000202C2900202DE9FC4100260C464C
:1028D0008DF800608DF8046000B3FCB147F6FF7717
:1028E000183000223946804600F0BAF805466A469C
:1028F00000214046FFF759FC054301AA012140464B
:10290000FFF753FC054302223946404600F0A8F881
:10291000284306D0701E2660BDE8FC816FF00100E0
:10292000FAE79DF804009DF8001000EB01202060FC
:102930000020F1E7B0B1A9B10A6802604B684360BA
:102940000B890381CB68C3600B6903614B694361E9
:102950000B8903830B690362CB68C36149694162D8
:102960001AB110476FF0010070474FF0FF30704709
:1029700070B50D46040008D0E9B204F1180001F06A
:10298000D3FB28B14FF0FF3070BD6FF0010070BD78
:10299000E8B22081002070BD10B502006FF0010088
:1029A0000BD009B1012908D1C9B202F1180001F018
:1029B000F1FB002801D04FF0FF3010BD70B50E467E
:1029C00004006FF0010506D004F1180001F0ECFCE2
:1029D00018B1681070BD284670BD0122002084F82F
:1029E0004D29012E09D00021022E09D0032E0CD032
:1029F000042E0DD084F84D19EDE784F84F2901E03D
:102A000084F84F1984F84E2970BD84F84F2901E0ED
:102A100084F84F1984F84E1970BD70B504000BD0BE
:102A200094F84D094FF0FF3520B104F1180001F082
:102A300079FD20B1284670BD6FF0010070BD002007
:102A400084F84D0970BD70B50546C0680E468047D4
:102A50000446E8688047001BB042FAD3002070BDEE
:102A600037B504884568012302AA2046A847C0B2AA
:102A70003EBD70B5058844689BB22846A047C0B2E9
:102A800070BD00000FB4054B10B503A9044A0298AD
:102A900000F028F810BC5DF814FB000019320008A3
:102AA000700000200907090E002804DB00F1E02077
:102AB00080F80014704700F00F0000F1E02080F86B
:102AC000141D704702E008C8121F08C1002AFAD17D
:102AD00070477047002001E001C1121F002AFBD19E
:102AE000704700002DE9FF4F8BB088460546002651
:102AF00006E025280BD0DDE90D1290476D1C761CF1
:102B000028780028F5D10FB03046BDE8F08F0024BA
:102B1000A146A2460122AE4900E0044315F8013F58
:102B2000203B02FA03F00842F7D128782A2810D077
:102B30006FF02F022878A0F13001092915D809EB90
:102B4000890102EB410144F0020400EB01096D1C14
:102B5000F0E758F8041B5FEA010903D544F4005478
:102B6000C9F1000944F002046D1C28782E2817D101
:102B700015F8010F44F004042A280ED06FF02F023C
:102B80002878A0F1300109290AD80AEB8A0102EB62
:102B9000410100EB010A6D1CF2E758F804AB6D1C13
:102BA00028786C280FD006DC4C2817D068280DD068
:102BB0006A2814D104E0742810D07A280FD10DE0CF
:102BC00044F400140AE044F4801401E044F4401496
:102BD0006978814202D104F580146D1C6D1C28783F
:102BE000692865D006DC00288DD0632827D06428AA
:102BF00006D15DE06E2808D073282AD0752877D0DA
:102C0000DDE90D129047761CE0E0C4F30250022883
:102C100009D003280DD0D8F8001004280DD00E607C
:102C200008F10408D2E0D8F80010F217C1E90062F8
:102C3000F6E7D8F800100E80F2E70E70F0E718F80B
:102C4000041B8DF8001000208DF80100EB460120D8
:102C500003E058F804BB4FF0FF3061074FF0000766
:102C600001D40AE07F1C57450DDA8742FADB1BF8D6
:102C700007100029F6D106E07F1C8742FCDB1BF819
:102C800007100029F8D1DDE90D23A9EB07008146E3
:102C9000214600F0B1F83044C61904E0DDE90D1218
:102CA0001BF8010B90477F1EF8D22146484688E06A
:102CB00058F8040BC4F302514FF00A0B032900D15A
:102CC00000B2042900D140B2002802DA40422D218E
:102CD00002E0210505D52B218DF82410012104E007
:102CE00006E0E10710D02021F6E708AF089113E0D5
:102CF00058F8040BC4F302514FF00A0B032900D11A
:102D000080B2042900D1C0B20021EEE75946FDF798
:102D1000B4FA303107F8011D0028F7D1ADEB0700F8
:102D200000F1200B600702D524F4803401E04FF05D
:102D3000010ADA4502DDAAEB0B0000E00020824622
:102D400000EB0B0108980144A9EB01000A90E00395
:102D500006D4DDE90D2321460A9800F04DF806441B
:102D60004FF0000908E009A911F80900DDE90D128A
:102D7000904709F10109761C08998945F3DBE003C6
:102D80000CD5DDE90D2321460A9800F035F80644FC
:102D900004E0DDE90D1230209047761CBAF1000105
:102DA000AAF1010AF5DC05E0DDE90D1217F8010BC7
:102DB0009047761CBBF10001ABF1010BF4DC0A98E3
:102DC0002146DDE90D2300F005F806446D1C97E669
:102DD000092801002DE9F041044600251E4617464A
:102DE000880404D405E039462020B0476D1C641ED9
:102DF000F9D52846BDE8F0812DE9F04104460025CB
:102E00001E469046C80301D5302700E020278804DD
:102E100004D505E041463846B0476D1C641EF9D51F
:102E20002846BDE8F0812DE9FF5F0024DDF83CB0C5
:102E30008A460546264600F5A269871853464A4643
:102E400028460399FFF7B9F940EA04080A21284601
:102E5000FFF7F9FD40EA08000446C82E02D340F00F
:102E6000010411E0BAF1040F06D395F812057F288A
:102E700002D344F0420407E097F810050E99761C3F
:102E80000840F6B25845D9D104B02046BDE8F09FBD
:102E90002DE9F04F0F46044650A14EA0D1E9008124
:102EA000D0E90056E3B089464FF4F47B04F5A26004
:102EB0004FF0000A5A4604F120010090FDF7B9F9DD
:102EC000102F5ED104F5A460594660C00098FFF74A
:102ED0007DF904F24C513A0102A86291FDF7A9F97B
:102EE00004F5CA61802242A80191FDF7A2F90021F0
:102EF00002AB42AA0020450005EB011503EB850655
:102F000053F82570D6F804C06744D6E908C666446D
:102F10003E44B70800EB8106401C43F8267032F9A6
:102F2000157002EB450540B2B5F902C06744B5F92A
:102F300010C0B5F9125065443D44EF1705EB977585
:102F4000AD1022F816500428D5DB491C49B20429DB
:102F5000D0DB602102F12000FDF784F9C02112A826
:102F6000FDF780F94FF4807202A96298FDF761F9CC
:102F7000802242A90198FDF75CF959460098FFF7B5
:102F800025F900204FF4F2722118401C91F81835F1
:102F900080B281F810359042F6D3C4F8F496C4F8A4
:102FA000F0865B4642F618612046009AFFF761FD05
:102FB00040EA0A050321FF20CDE900014FF4305318
:102FC000012204212046FFF72EFF63B02843BDE80D
:102FD000F08F00000F040400081010070000000F1D
:102FE000030101E42DE9F34F3BA10446D1E900813F
:102FF0003BA0C3B0D0E900673BA0894605684FF409
:10300000427B04F5A2604FF0000A5A4604F50271B3
:103010000090FDF70EF94498102844D104F5A06003
:10302000C4F81C95C4F81885C0E90C675946009887
:10303000FFF7CCF84FF4807804F2445142468946B9
:1030400002A8FDF7F6F8002102AA0020430003EBD6
:10305000011352F8236002EB83035F683E44D3E917
:1030600008733B44334400EB81069B08401C40B28C
:1030700042F826300428E9DB491C49B20429E4DB84
:10308000C02102F14000FDF7EDF8424602A9484692
:10309000FDF7CFF859460098FFF798F80020C4F8DC
:1030A0004456C4F888055B4642F6F8412046009A2B
:1030B000FFF7DFFC40EA0A050321FF20CDE900010C
:1030C0004FF43053012204212046FFF7ACFE45B0F7
:1030D0002843BDE8F08F00000F0404170810100704
:1030E0000078000800000008A0FC01001B2101A0DE
:1030F000FFF7C8BC25635B324A00000010B51B21F6
:103100000CA0FFF7BFFC0DA0FFF7BCFC15A0FFF75C
:10311000B9FC1FA0FFF7B6FC29A0FFF7B3FC2FA056
:10312000FFF7B0FC36A0FFF7ADFCBDE810402AA0C9
:10313000FFF7A8BC25635B324800000035334C38EC
:1031400041312053696D706C652052616E67696E04
:10315000672064656D6F206170706C69636174696C
:103160006F6E0A002D2D2D2D2D2D2D2D2D2D2D2D5C
:103170002D2D2D2D2D2D2D2D2D2D2D2D2D2D2D2D7F
:103180002D2D2D2D2D2D2D2D2D2D0A0A0000000069
:103190005573652074686520666F6C6C6F77696E17
:1031A00067206B65797320746F20636F6E74726F24
:1031B0006C206170706C69636174696F6E0A0000E5
:1031C00020277227203A206368616E676520726548
:1031D000736F6C7574696F6E0A0000002027732787
:1031E000203A20656E61626C65207369676E616C60
:1031F00020616E6420616D6269656E740A00000072
:1032000020276327203A20636C6561722073637204
:1032100065656E0A0000000013B5074807494FF4C2
:103220007A730078012200EB001001EB8000694600
:10323000FEF788FB00981CBD10000020100600203F
:1032400010B563282DD01B4C72280DD0732830D1B7
:103250000120FFF79DF9E06838B30020E0602069A5
:1032600028B30020206114E00120FFF791F92068C5
:10327000012808D0022804D0032808D0042808D147
:1032800003E0042004E0032002E0022000E001202B
:10329000206008490120FFF7FBF801210846FFF7ED
:1032A0005FF9BDE81040FFF721BF0120D6E70120FC
:1032B000D8E710BDA4000020FDF796FDFEF79AFFA9
:1032C000FEF714FEFEF7A0FEFEF7DEFEFEF70CFF93
:1032D000FCE700002DE9F05F5B4E074630680428EC
:1032E00011D003280FD00424FFF708FF57A0FFF7E1
:1032F000C9FB002559A25BA15EA0FFF7C3FBF068E4
:10330000B24628B901E00824EEE7DAF8100020B14F
:103310005FA264A168A0FFF7B5FB6D1C6DB2002D24
:10332000E8D069A0FFF7AEFB00267BE067A0FFF7BF
:10333000A9FB6D1C6DB2A542F8DB62A0FFF7A2FBF2
:10334000002504E066A0FFF79DFB6D1C6DB2A54251
:10335000F8DB68A0FFF796FB4FF00008A4F1010925
:103360004D4613E0701900EB800007EB80000179F7
:1033700029B100EB8800D0E902125FA002E066A24A
:1033800065A166A0FFF77EFB6D1E6DB2002DE9DA28
:1033900058A0FFF777FBDAF80C0010B9DAF8100044
:1033A000C0B34D4631E0701900EB800007EB800B95
:1033B0009BF8040010B3DAF8100048B10BEB88005A
:1033C00090ED050A59A0BDEEC00A10EE101A01E0FA
:1033D00051A159A0FFF756FBDAF80C0048B10BEBEE
:1033E000880090ED040A57A0BDEEC00A10EE101A36
:1033F00001E049A155A0FFF745FB04E046A246A124
:1034000046A0FFF73FFB6D1E6DB2002DCBDA39A051
:10341000FFF738FB08F1010040B25FEA00089FD0D7
:10342000301946B238684FF00005B04283D804E046
:1034300026A0FFF727FB6D1C6DB2A542F8DBBDE8A7
:10344000F05F20A0FFF71EBBA400002043656C6C5A
:1034500020466F726D6174203A0A0A0053746174D9
:103460007573000044697374616E6365205B6D6DF4
:103470005D000000201B5B33383B353B31306D2550
:103480003230731B5B306D203A20253230730A00D6
:10349000416D6269656E74205B6B6370732F73702E
:1034A00061645D005369676E616C205B6B63707370
:1034B0002F737061645D00002025323073203A2044
:1034C000253230730A0000000A0A0000202D2D2D3D
:1034D0002D2D2D2D2D2D2D2D2D2D2D2D2D2D000076
:1034E0007C20202020202020202020202020202080
:1034F000202000007C0A00007C201B5B33383B3519
:103500003B31306D25356C641B5B306D20203A20DB
:103510002025356C64200000580000007C202535F3
:103520007320203A20202535732000007C2025358B
:103530006C6420203A2020007C2025357320203A1E
:103540002020000025356C64200000002535732004
:103550000000000070B50D460446042300F5A26289
:103560000021FEF72AFE94F81015227C914213D018
:10357000FF2911D094F8111505290DD194F81225C1
:10358000914309D194F81315C90605D50121297075
:1035900094F81015217470BD94F81315090602D51E
:1035A00094F8121508430021297070BD2DE9F047E9
:1035B0001C4603F10C0527A38A46804686B00BCB38
:1035C00002AE86E80B0040F22440854201D9FF2676
:1035D0003CE0100A8DF808008DF8092020098DF8CC
:1035E0000A0020018DF80B000C2302AA42F6F471A8
:1035F0004046FFF73EFA06460321FF20CDE90001D1
:103600004FF43053012204214046FFF70CFC40EAFE
:10361000060708F5A2622B46914642F60441404651
:10362000FEF7CBFD40EA0706A9B24846FEF7CEFDFD
:10363000002120B208E000BF08EB010292F8143527
:103640000AF80130491C09B28142F5DB06B0304668
:10365000BDE8F087000000000000000F0002000835
:103660002DE9F05F0AAF994697E8600192460C4653
:103670008346FFF79BFF074604EB080032462946C6
:10368000FCF7D7FD4B4652462146584600F004F859
:103690003843BDE8F09F00002DE9FC5F8A462FA16A
:1036A0000746D1E9008603F10800010A61F31746D5
:1036B00060F31F661C4642F6F470001B4FF00009D1
:1036C00080B203F10C0B40F224414D4600908B4533
:1036D00001D9FF253EE0100A60F3070562F30F25CC
:1036E000200960F31745200160F31F65214650460D
:1036F000FEF76CFD4FF0FF3000FA84F006E000BFEB
:103700001AF800103A18401E82F8141500B200286A
:10371000F6DA3919C7F81055C1F81485C1F81865DB
:103720005B4607F5A26238460099FFF7A2F940EA26
:1037300009060321FF20CDE900014FF43053012297
:1037400004213846FFF76FFB40EA06052146504644
:10375000FEF73CFD2846BDE8FC9F00000000000F7E
:1037600005010000F8B50D4647F6FF760746002232
:103770003146FFF775F904466A4609213846FEF7D7
:1037800014FD04439DF80010002002290BD00429E9
:1037900008D02870FF24022231463846FFF760F92E
:1037A0002043F8BD01202870F5E700002DE9F04125
:1037B0000C4600F5A2620546164600214369FEF755
:1037C000FCFC074695F810052874A88A81B230469B
:1037D000FEF7FCFC102641E0A9194FF4A260405806
:1037E00000F00F02931E0B2B04D2C0F30B1312FB3D
:1037F00003F201E0C0F30B129046000C4DF6C43208
:10380000831A904259D00FDC00F64C30B0F5C0401E
:1038100014D01C2816D0A0F56970B0F500405CD01B
:10382000B0F54B7F18D110E0B3F5607F49D0B3F508
:10383000906F4AD0B3F5986F0ED14AE091F81C050D
:10384000207009E04246201D02E0424604F58270E5
:1038500001F21451FCF7EDFC4644361D6869B04294
:10386000BAD8002004EB8001401C4A68D20A4A60A2
:103870004028F7D35FF0000004EB4002B2F9441295
:10388000CB1701EB93718910A2F84412211891F81B
:10389000C422520881F8C42204EB8001401CD1F8F4
:1038A0004421D20AC1F844214028E5D30020FF2159
:1038B000221892F80421A2B116E0424604F5A27043
:1038C000C6E7424604F51170C2E7424604F531707E
:1038D000BEE7424604F54170BAE7424604F551702E
:1038E000B6E7021982F80413401C4028E0D30020F8
:1038F0004FF6FF7204EB8001401CD1F850332028B2
:10390000B3FBF2F3C1F85033F4D395F8180505F280
:103910000C52010295F819050843696905F20D5525
:103920008A5C495D41EA0221884201D047F00207E2
:103930003846BDE8F08170B50D460446082345F2CF
:10394000504200F5A261FFF731FE94F8101594F88B
:10395000112511FB02F1297070BD0000F8B50D466C
:1039600004000BD055B104F1180069460746FFF773
:10397000E2FF4FF0FF3620B13046F8BD6FF0010096
:10398000F8BD2E493846FFF711FF0028F4D19DF805
:10399000000000229FED2A0A284B286048E09F186B
:1039A00002EB820105EB810C97F804018CF804000E
:1039B000002037E0161803EB4601B1F944E20CEBA6
:1039C0008001C1F808E094F850E9BEF1010F11D070
:1039D00081ED040A94F851E9BEF1010F13D081ED95
:1039E000050A1E4496F80463052E15D0092E13D03F
:1039F000A6B114E003EB820EDEED010AF8EE600AD8
:103A0000C1ED040AE6E703EB860EDEED510AF8EE9F
:103A1000600AC1ED050AE4E7002600E0FF26401C2D
:103A2000C0B2CE6097F804118142C3D8521CD2B202
:103A30009DF800008242B2D30020F8BD5409002056
:103A4000000000002DE9F04F0446FFA085B000689B
:103A50000127CDE90307FD48E061A0F5737047F643
:103A6000FF76A061002231462046FEF7F9FF0546A9
:103A7000042209212046FEF7F3FF40EA0508402210
:103A80000F212046FEF7ECFF40EA080503220A2139
:103A90002046FEF7E5FF40EA050802AA3146204627
:103AA000FEF783FB40EA080501220C212046FEF7C1
:103AB000D7FF40EA0508002240F201112046FEF738
:103AC000CFFF40EA080500224FF481712046FEF73F
:103AD000C7FF40EA05084FF4857B0122594620467E
:103AE000FEF7BEFF40EA080544F2020A01225146F1
:103AF0002046FEF7B5FF40EA050800225146204661
:103B0000FEF7AEFF40EA0805032259462046FEF7BD
:103B1000A7FF40EA0508012240F203112046FEF704
:103B20009FFF40EA080500220C212046FEF798FF7F
:103B300040EA050843220F212046FEF791FF40EAA4
:103B4000080501212046FEF77EFF40EA05084022D5
:103B50000F212046FEF784FF40EA080501220A21D2
:103B60002046FEF77DFF40EA050864212046FEF767
:103B70006AFF40EA0805002231462046FEF770FF42
:103B80004FF0FF09CDE9009740EA0508062300221F
:103B900001212046FFF747F950EA08007ED10122B3
:103BA0000E212046FEF75CFF05460222B046314654
:103BB0002046FEF755FF0543012241462046FEF709
:103BC0004FFF0543032206212046FEF749FF40EA46
:103BD000050610250095212300220121204601958C
:103BE000FFF721F90643002241462046FEF738FF41
:103BF000064302AA41462046FEF7D7FA06430122B1
:103C00000C212046FEF72CFF0643002241462046A9
:103C1000FEF726FF0643002240F201112046FEF780
:103C20001FFF064300224FF481712046FEF718FF64
:103C30000643012259462046FEF712FF40EA0607D6
:103C4000012251462046FEF70BFF40EA07060022FC
:103C500051462046FEF704FF40EA06070322594674
:103C60002046FEF7FDFE0743012240F203112046E5
:103C7000FEF7F6FE40EA0706002244F20F01204656
:103C8000FEF7EEFE064340F21A274322394620464D
:103C9000FEF7E6FE06430322394600E073E12046C4
:103CA000FEF7DEFE0643012239462046FEF7D8FE27
:103CB0000643002239462046FEF7D2FE0643002284
:103CC000791E2046FEF7CCFE06430022791C2046D2
:103CD000FEF7C6FE0643002241462046FEF7C0FE20
:103CE00040EA060702AA41462046FEF75EFA40EA8D
:103CF000070600220C212046FEF7B2FE06430122F1
:103D000041462046FEF7ACFE40EA06070722202186
:103D10002046FEF7A5FE40EA07060622202120469F
:103D2000FEF79EFE0643092241462046FEF798FE16
:103D300006434FF4004A5346454A00212046FEF709
:103D400098FE06430A2241462046FEF789FE40EAD5
:103D5000060753463F4A00212046FEF78AFE40EA06
:103D600007060B2241462046FEF77AFE40EA060788
:103D70004FF4A043384A00212046FEF77AFE40EA7D
:103D80000706012241462046FEF76AFE064301224D
:103D900041462046FEF764FE0643032206212046E4
:103DA000FEF75EFE064300952123002201212046F6
:103DB0000195FFF738F840EA060500224146204603
:103DC000FEF74EFE054302AA41462046FEF7EDF9F6
:103DD000054301220C212046FEF742FE0543002246
:103DE00041462046FEF73CFE054300224FF48A710F
:103DF0002046FEF735FE0543002240F2151120460D
:103E0000FEF72EFE054342224FF48B712046FEF74B
:103E100027FE0543002240F217112046FEF720FE40
:103E2000054300220B212046FEF71AFE054302AA95
:103E300041462046FEF7B9F9054300220C212046F1
:103E4000FEF70EFE054309E001000100049A010897
:103E50003846000838C600083846010801220B2100
:103E60002046FEF7FDFD40EA050600252F464FF4EB
:103E7000FA7A6A4606212046FEF797F905439DF82F
:103E80000000000609D501AA07212046FEF78DF99A
:103E900005439DF80400C0070BD101212046FEF721
:103EA000D2FD7F1C9DF80000BFB2C00701D157456D
:103EB000DFD355EA060066D1022241462046FEF7CE
:103EC000CFFD06462823314A42F6D8712046FEF738
:103ED000D0FD40EA06050220CDE900904FF43057AE
:103EE0004E463B46002204212046FEF79CFF40EA56
:103EF000050804F5A2624FF4F6739146391D204679
:103F0000FEF75BF940EA08054FF4F472494604F104
:103F10002000FCF78EF910212046FEF7B9FF40EA99
:103F200005084FF442721A4904F50270FCF781F952
:103F300010212046FFF756F840EA08054FF4737346
:103F400042F634412046A269FEF793FD40EA050897
:103F50000320CDE900603B46012204212046FEF704
:103F600062FF40EA080504234DF6803203A920468B
:103F7000FFF792FB054304234DF6641204A9204683
:103F8000FFF78AFB284305B0BDE8F08F0C9D0108C0
:103F9000049A01082DE9F84304004FF00000884618
:103FA0008DF8000015D0C51E60698047064604F1F3
:103FB000180769463846FFF7CDFA9DF8000001283A
:103FC0000AD060698047811B4145F2D32846BDE88D
:103FD000F8836FF00105F9E70025F7E77CB50646A1
:103FE00035A00C46D0E90010CDE900100025294687
:103FF000207A08283AD006DC012809D0022835D0DA
:10400000042811D126E00D283CD013280CD145E01E
:1040100001EB410054F82020920044F8202004EBEA
:104020008000426892004260491CC9B24029DFD337
:1040300008234BF6F01269463046FFF72DFB054387
:104040004FF440734BF2E86221463046FFF724FB01
:1040500028437CBD01EB410054F82020D20144F8F4
:10406000202004EB80004268D201DCE701EB410034
:1040700054F82020D20244F8202004EB800042684B
:10408000D202D0E701EB410054F82020120244F89C
:10409000202004EB800042681202C4E701EB4100DB
:1040A00054F82020C2EB024244F8202004EB8000A8
:1040B0004268C2EB0242B6E70505050505050505A0
:1040C000F0B5044617A085B00068039001250422CE
:1040D0000020012921D00C218DF80D008DF8101041
:1040E00003A90091CDE9012004F5A26108234BF258
:1040F000E0620E462046FFF7B3FA04A90746CDE971
:10410000001511200290142345F2884231462046C2
:10411000FFF7A6FA05B03843F0BD8DF80D508DF8C5
:104120001020DDE7010001002DE9F0410D4647F6C2
:10413000FF77064600223946FEF792FC0446C5F397
:10414000470204213046FEF78BFC044335800222EF
:1041500039463046FEF784FC2043BDE8F0811FB5A8
:104160008A1E40F2E73303919A4202D37F2004B0C3
:1041700010BD4FF47A72514303910023042203A926
:104180008DE80E00142345F25C4200F5A261FFF7B2
:1041900067FAECE7FEB50D46074602A9FFF7E2FA1B
:1041A00004469DF8080085420FD028004FF0010515
:1041B00047F6FF761DD0012809D0FF25022231469F
:1041C0003846FEF74DFC40EA05042046FEBD0022BD
:1041D00031463846FEF744FC0443042209213846A0
:1041E000FEF73EFC044306230022009501210195C1
:1041F00011E0002231463846FEF732FC0443022229
:1042000009213846FEF72CFC04430020CDE900507C
:104210000623024601213846FEF705FE40EA040562
:10422000CCE703B583B0012104AACDE900210291B6
:10423000042345F2584200F5A261FFF711FA05B0D8
:1042400000BD2DE9F8430F4600264AF6305800F528
:10425000A26104460823424689460096FFF7A6F964
:10426000054601200321012F13D0032F17D07F25EE
:104270000823424649462046FFF70EFA0543042329
:104280004DF6641269462046FFF706FA2843BDE85A
:10429000F88384F8110584F813150096E8E784F88C
:1042A0001115022184F813150090E1E72DE9F35F61
:1042B000044601984AF638574FF0040A4FF00809AF
:1042C00045F2504B04F5A26610280ED040283CD091
:1042D0007F2520460199FEF7DBFD05432046019925
:1042E000FEF780FE2843BDE8FC9F10233A46314686
:1042F0002046FFF75BF98046402084F8140584F8D7
:104300001605554684F819A510233A46314620462D
:10431000FFF7C2F940EA080708235A46314620460B
:10432000FFF744F984F8105584F8115540EA07085E
:1043300084F8149584F8159508235A46314620468A
:10434000FFF7AAF940EA0805C3E710233A463146C9
:104350002046FFF72BF90546102084F8140584F851
:104360001605012084F8190510233A4631462046E7
:10437000FFF792F940EA050708235A4631462046DE
:10438000FFF714F984F8109584F81195074384F821
:1043900014A584F815A508235A4631462046FFF790
:1043A0007BF940EA070594E7F0B597B0044600258D
:1043B0005AA0079508950068159002A92046FFF7B6
:1043C000BAFA6561564BFF27064627740FCB03AD3B
:1043D00085E80F0052493022103109A8FBF729FF68
:1043E0000398002500F6687009A9039051F825008C
:1043F00000B36A0903AB05F01F0C53F82220012318
:1044000003FA0CF31A4215D000F00F035B1E01EB08
:1044100085020C2B7CD29DF8083063F30F101060DE
:104420001088636900F00F02C0F30B1012FB00301C
:10443000001D60616D1C0C2DD8D3606930231830CD
:1044400060614DF680122046FFF726F906436D1C89
:104450006069CDE9070508234DF6681207A92046D3
:10446000FFF71AF940EA060510234DF6701203A96A
:104470002046FFF711F9054347F6FF760022314643
:104480002046FEF7EDFA0543052209212046FEF7F6
:10449000E7FA0543022231462046FEF7E1FA0543DA
:1044A000042315AA42F6FC712046FEF7E2FA40EA20
:1044B00005060320CDE900704FF43053012204219A
:1044C0002046FEF7B0FC40EA060504F5A2610C2385
:1044D00045F240420E462046FFF768F80543B4F81F
:1044E0001805616980B2814201D045F0FF050823BB
:1044F0004EF2C40231462046FFF758F894F81615DC
:104500002843002901D040F0030017B0F0BDFFE7B9
:104510006269C0F30B1010448AE70000000300003A
:10452000349D01082DE9FC47814600208DF80000EC
:1045300005460190042301AA42F6FC714846FDF7A6
:104540003CFE0446019847F6FF76A0F58061FF39EE
:104550002FD0002231464846FEF782FA0443162245
:1045600015214846FEF77CFA40EA0407012214218F
:104570004846FEF775FA40EA07044FF4FA7714E06C
:104580006A4606214846FDF710FE40EA04080A2163
:104590004846FEF758FA6D1CADB240EA0804BD4229
:1045A00003D99DF80000044303E09DF800000006D5
:1045B000E6D56A4606214846FDF7F7FD40EA0405C0
:1045C0009DF8000000060CD56A4607214846FDF715
:1045D000ECFD05439DF80000842802D0852800D01A
:1045E0000543002231464846FEF73AFA40EA050400
:1045F000002214214846FEF733FA04430022152115
:104600004846FEF72DFA0443042209214846FEF7E6
:1046100027FA0443022231464846FEF721FA204396
:10462000BDE8FC8728000020BD0400080F00000042
:104630000D000006C9040008E0000308E0000AC8F5
:10464000E0000508E06037C8E0000A88E0000A885A
:10465000E0000A88E0000A88E0641C28E0641FE8A3
:10466000E0642348E0642988E0643268E068056813
:10467000E0680948E0680CC8E0681328E06816485C
:10468000E00009E8E00009C8E00009A8E0000988A6
:10469000E0000968E0000948F8020006C1C3810192
:1046A0001E06A10B1A0681009923E10097B397E338
:1046B000062C97730634E2C0062CFC80C183E340CD
:1046C000E2C0061CFC980634FC9C0634E340061C41
:1046D0006938C183C143E800C1C38105E100000C12
:1046E000FA045E65EC100CF0F41C5E60BC6E886130
:1046F000FF8407FC9A14D804E4300460FC124C06D2
:10470000E0D04C4AC1C38215C1C3C1C3F804170C21
:1047100081938183E2C00C2C1C8CD167E36BE40491
:10472000E56B8E05806033083458E76BE96B806079
:10473000EB6B8AC58060358839D8ED6BF16B806092
:10474000806036A837F8F36BF56B8060F76B8AC52D
:10475000F96B8C05FB6B8C450C0A8A458A65E4B4C1
:10476000E4B80C0A39F884454006E060404AFC127F
:1047700080D5E0D0C1C3C1C31F0CC1C30FFCF0047E
:10478000BCF4F784C153FD64E080000CE080000CB1
:10479000E080000CE080000CE080000CE080000C69
:1047A000E080000CE080000CE080000CE080000C59
:1047B000E080000CE080000CC1C3C143C1C3C15301
:1047C000FAFC040C600006DA0A20A10B1830640021
:1047D0000E24E400020A37800C0680000834200012
:1047E0000A70B7805842A40481613298212BAA45EF
:1047F000060A8CBB0C1000000400E400181A6400C8
:10480000A825E0000804A11D0E1457801006D780CB
:10481000044040000854C4044C72768010C4D2A0F6
:10482000144076800E64A4801224F680A16B7680FA
:104830003C0154808C8B400004800890DC00487060
:10484000849B28A3EC040EA09EE5A07D964B217BC3
:104850000E8A86450E9AE5000006448016A0800068
:1048600008542C84C000289C20010E4A00544000AB
:1048700000C4A8ACC000289D0F9C14544002885B63
:1048800080CB99A861840084E1840894128401CBD0
:10489000324FE0FCE4041C704B0A01A158DA84108A
:1048A00094BB64006D84401A1C70C61F00C42408A9
:1048B0000E54A084085421FC4002A084A1EB399C32
:1048C0003C005800BC004A401D5A08C50EE0E004F8
:1048D0000DCBEC04E1FC00A44B0A42B758FA840863
:1048E00008C4641810A4E0FC400A608420BFED8C6A
:1048F000005490AB14846184280F9C8091944822CA
:1049000013B04A624C50C3C7805B1C0027F04ED8DE
:104910009C004440960B211D578004A4D78002B40C
:1049200040000606C4040420528C42124010946BCE
:104930004C205C00801BDC000C0C8C0BDD93F2FC2B
:104940008C1B7FC5806B7FA5967B73E5FA3C040CBE
:1049500081C1210B0000020AA085986B76800A14A1
:104960000824A12B060A76800C048000988B7680A0
:10497000061A1EC51834E000A11B7680A4800E40E4
:104980003C014EC00860C00048500480A873DC00A1
:10499000EC040A709AC5A05D90CB215B0A8A86451B
:1049A0000A9AE50008064480107080000A4A2C84A8
:1049B000C0002000289508340C24400008248F945F
:1049C000182428A0C000289419984842883B982BA6
:1049D00061840814E0FC0C14618418042CCF893B1A
:1049E000E41046DA0430450AE40412506D84401A9B
:1049F000125081C10C2424080834A1FC0A2420840C
:104A00004842A084A19B39983C004640BC004450D9
:104A1000135A186B88C5E004EC040E9046FA033B69
:104A2000450AE4040A2404001034E184C26760FCEF
:104A300060841CC4ED8C400A6184083410C4B05FEB
:104A40009CCB61FC5002306F44129188883B138CE0
:104A50001C00422040808A2B18E41C004FD89C8008
:104A6000180BA7EC0C0C8C1BDD93F23C826B00CB7B
:104A700075F5FF95C1C3905BFAFC040C808B210B8C
:104A80000000020A046B829B80E5867B060AA12B4C
:104A9000400A800080E5E59C841B81210C0C840B7E
:104AA000DD93F2FC6800418800BB841B02AB900BD5
:104AB00041188E1B007BE80040D8920B8C1B6800CD
:104AC00044B2813142A2F08C8623F29C42127D8551
:104AD000C1C3F280E6864A0EE706580E6606460E09
:104AE000E1C008546786440EE0C000C402C46057A9
:104AF0008A03E1C0F29042125D938603F28842126B
:104B0000E50004CAC17C0214DC004010848004CAA1
:104B1000CC800420C9080014C17C02148000045A0F
:104B2000AD880614200106060004C000021489881E
:104B300040028908DD93998CE50004CAC000020692
:104B4000C0000006848004CACC800420C9880014F8
:104B5000C00002068000045AAD8806142001060633
:104B60000004C0000214898840028988DD93998C72
:104B70008141610B06148A25E11B7680768004044E
:104B8000088581410630A43304046C04A03DE1840F
:104B9000A13B86E5C88C021464041830E408431A6B
:104BA00024081830A08402140AC021CB195AEC043E
:104BB0008245E004C247401D1C80084491844002A5
:104BC00027FC4A985D93C3177FE5880B7D55804B82
:104BD000C1C3883BFA00040C8111006BE804504803
:104BE000E1A0408600158004A11BE03CDC384208AF
:104BF000680457C8C1C38C0BFA04047C749146CE78
:104C0000498EC010C01074918825893DCD14CD0403
:104C1000050ACD244A00E0808425F00CE4000A3A1D
:104C20006001009804208000C116EC04F80C004AD2
:104C30000420FE65E92DEC10FE85C11EE00404CAC7
:104C40008000454845C8C116FBF587FCE198414600
:104C500061914306801EC00081119B018131812139
:104C6000E8044A888C45A10B7491074E48CEC010C9
:104C7000C01074918A45893DCD14CD04050ACD2418
:104C80004A00E0808625F00CF00C4C10E4184A5ADB
:104C9000E4000A3AA0000128600100A8C550800085
:104CA000EC040420004AC156FE45F80C0420C5540B
:104CB000E92DEC10FE65C15EE00404CA8000458861
:104CC000C156C55087FC45884786FB6508F0E190D2
:104CD0008C4EE430E1A40C46E1A40E4682458F6D73
:104CE000023AD9140068E40080006001FC384208F0
:104CF0008161FF650046E16B4C08E1A48B04DC3860
:104D0000FE248914E86C5368E1A40C46E1A40E4625
:104D100082458F6D023AD9140068E400800060017A
:104D2000FC3842087578FF650C7CEFFCDD93F204DB
:104D30008055A11B0A0083114006E550404AFC1231
:104D4000D7F4E0D0C1C382B5C1C3C1C3F4040B3FE3
:104D5000F4040B2FF4040B1FF4040B0F0A508135DD
:104D6000405AEC404406E0BC446ABC22404AA09051
:104D7000C0002089ED88401A200101980AFFC00078
:104D8000C1C3F404C1C3C1C3F4040BF5F4040BE5BF
:104D9000F4040BD5F4040BC5F4040BB5F4040BA513
:104DA000F4040B95F4040B850AFF81550A50F404B2
:104DB000D7E4EC80D7B4D7D4D794D7A4D774D7840A
:104DC000820B9464FA005C08F83C044CE440048ACA
:104DD000212B80A58215803B461281F5064AF98079
:104DE00082B5F80C0420803B044AEC04C548E4007A
:104DF0004588CD460C4C87FCDD93F03C6C400A2086
:104E00004927E1C104208ACF06C06C04044AE4406B
:104E1000481264000033F08C0275806B0285F0103C
:104E20000295F80C02A5F8084C75F8044C85F010B2
:104E30004C95F80C4CA5F8084408F804445287F83F
:104E4000E92DF1B00A208695C5276C1061880E54B3
:104E5000EC040C2064041870E4000C4A047444C789
:104E60004242E088867B70B0DD8ED18487FC4D881D
:104E700071884452A12B9833F7E5ECF5881B212B60
:104E8000F7A5EC75E100000CF804040C780C000A9E
:104E90008225803B94A5A12B04204D16064AEC04E4
:104EA000FE25F80C9095E92D7A800814E440048AD8
:104EB000E0A00A440854A85F06F5E0C00C24AA4FFD
:104EC0000A20619061C1EC40EC040C600C4A0ACFEE
:104ED0004E32E400862B70B0E4400670F01044457A
:104EE000F80C4445F8084445F804444587FC4C0850
:104EF000F1B044528695E92DF9C107514A52A453A5
:104F00000453FAB0EC1004200E2408514557E188F0
:104F1000E40418706C040C50E0880A7464000C4AB5
:104F2000DD4E867B87FC4DC8AA2344C7A12B98334E
:104F300004208205044AEC04CD16E40087FC45C831
:104F4000F0040C0CC1C3DD93FE7C040C044A007B0E
:104F50004072E0101EF07988000CED20001A62000B
:104F6000110EF80C1B0E828B200100265E05C0007E
:104F700040002035233EEF8D5E17A40B9D2EE0FCF4
:104F80002388A10E0024C000C41B6188C03B7D4162
:104F90007A104212FA1046328413003382113E1EF8
:104FA00082317C3E0020191E973EEC040084FE0EE8
:104FB000AF8B6184540A158E2EA5E68A00808EA3DD
:104FC000108A6C04400AE4A45672E68A407070802D
:104FD000A2B5DC0000840FBE23B4E18CE68A4C0A43
:104FE00060840064F09850728E030D0E8E0B0B0ED1
:104FF0005608901B138EFC380B84809B901B900BE3
:10500000FC385608829DFF11A00D82850E0B84D5B9
:10501000A324901BFC3844088E0B210D81C582858A
:105020008275A10D901B0E0B4408A324210DFC38A2
:1050300080458E0B930E900B50A22C0B2364F1989D
:10504000F09856A2900B0B0E4C08941B009BFC385A
:1050500009BE940B4C08961BFF11FC3882A5829D5B
:1050600084D5A00D900B09648C1BA324FC38440844
:1050700001D5A10D9C0050608255A10D900B09A493
:10508000941BA324FC3844088055A10D8FB490AB29
:105090008D148B949693A364718440B28D0E921BF1
:1050A000FC384C08920B008B4C08961BFF11FC3807
:1050B00082C5828DA00D15840D648615A324961BD0
:1050C00044088C0BA10DFC384CB001E515849C0004
:1050D0008275A10D961B0D648C0BA324FC3844082B
:1050E0008095A10D8CBB0135930492BB941B236466
:1050F0004C08930E009BFC38961B940BFC384C0814
:10510000829DFF11A00D828513A484D5A324961B34
:105110004408940BA10DFC3881D582A58275A10DA0
:10512000961B13648C0BA324FC3844085660A10D15
:1051300096AB9C00002A9B040118E000800040010F
:10514000E0FC1E0717148435024A8E0B8024E4000D
:10515000C13EA8344308E92E830587FCA8149C04AB
:10516000A80E9C1E191481B5024A8E0B8028E400FB
:10517000C136A8384308E9261D1487FCEC040080DA
:10518000500A8161407266861B0EF0840E8380ABEC
:1051900090BB809B8CD5D6AD8E1B140B4408A324EA
:1051A000A00DFC38A10B8AF59D049205A10B8DB5CD
:1051B000C0401E05012888D580004001E0FC1E0784
:1051C00017248455961B900BE400044A80448434D1
:1051D000C13EC54E87FC4508AC048315AC1EA01427
:1051E00081C5A00E960B1924044A901B8038E40058
:1051F000C14684484508C536210487FC8083836105
:10520000D6AD80B3160B94F5A3248E1BFC3844084E
:10521000F2C5A10D400103981E0780008E35E0FC09
:10522000960B1724044A941B8434E400C54E804432
:105230004508C13E878587FC400101281E07800084
:105240008455E0FC940B1724044A921B8434E40038
:10525000C54E80444508C13E831587FCA814A404AC
:10526000A80EA41E192481C5941B920BE400044AC5
:1052700084488038C536C14687FC450883611D04D3
:1052800071958093A80480A3A81EAC1481C5AC0EB0
:10529000940B1924044A961B8038E400C1468448C4
:1052A0004508C5361D0487FC210483616F3580A342
:1052B0001D1480B39504A16BE686400A00000E8899
:1052C000F0805872719C4292F1A440A2922B011D71
:1052D00044A00E3B46909C0048229C00A14BF18CC0
:1052E0001E078A2542A260FC8455F190FD31454796
:1052F0004422C82B8E3B7A0C82218823E400044A86
:1053000084548C44C54ECD5E87FC450808308335F7
:10531000FD516C0482212443FA1448422623882339
:10532000044A8E3B8C48E400CD5684584508C54657
:105330001D2487FCF1A042C2F1AC52824492A41316
:10534000A12BFB841E078C4584B5E0FC61880224F8
:10535000423BFD41F18844C2FA10463202308233AA
:10536000024AE404A834E400E94E88444308C93EF4
:1053700083B587FC06B07E143033EC049013822191
:105380004212B813FD317A8CFA0C4612F184423283
:10539000E400024A46C228580E48F188EC04042072
:1053A0008E56E94687FC4208986B1D148245C20D53
:1053B000EFF87E088E0B001BA3349D24EFFC5C6885
:1053C000C29D9D147D58A805920B6FF8F1A44E6202
:1053D000808B1D24F9884072000A11045E07F80CC6
:1053E0001B0EE0FCC000002640345E051E08EF8D59
:1053F000408A9FFC840DE68A0E03A0C5F088507297
:105400000024190E441BE188403BFD21FA0842129A
:1054100044321D348023FA08E40416200C1086134D
:10542000CE8DE404909B8AC592AB2194941B2324D7
:10543000920B9493FC3844088875A30DA10B9B0430
:105440001E0782E58435E0FC6400164A961B920B29
:105450008034A824C12EE93E87FC4308A8048305B4
:10546000A81EA41481B5A40E64000C4A8C1B920BD8
:105470008038A828C126E93687FC4308F4B5CE9DBC
:1054800019049D04C18D808387D5F2B5820D1BB4AC
:105490008E2599CEFC84BE64828182618AC5CEBD90
:1054A0002194969B232492AB9493941B4408920BD3
:1054B000A30DFC380118887580004001E0FC1E0730
:1054C000104A8435920B6400A824901BE93E803476
:1054D0004308C12E830587FCA414A804A40EA81EAB
:1054E0000C4A81B5920B6400A8288C1BE9368038E1
:1054F0004308C126CE9D87FC9D04F4B580B31904F2
:10550000F2B5C1BDE5201EF0F67C0C0CC1C3DD93E5
:1055100004FC805B4006E2C0D56EFC12D58ED57EC1
:10552000405AD59E4206E0BCD5AEBC22D5DED5BEE3
:10553000426AD5EE404AA090C0002089ED88401A0A
:1055400020010178C1C3C000C1C3C1C3F0044B85B1
:10555000F0044B95F0044BA5F0044BB5F0044BC59B
:10556000F0044BD5F0044BE5F0044BF5C21F81A5C8
:10557000D51ED51ED51ED51ED51ED51ED51ED51E93
:10558000E0D0404A82B5D52EC1C3C1C34B0FC1C3C1
:105590004B1FF0044B2FF0044B3FF0048165F004E7
:1055A000D51EC21FD51ED51E94FED51EDD938101CA
:1055B000E0041986A3CDC1C3184A82A54346E00082
:1055C0000215E1984205800041FE8000BFFF1FFDEB
:1055D0004346DD938414E19841FE84CEFFFF7FFDB6
:1055E000C1C3DD93FE7C040C6C401EF07C0E826B0C
:1055F000E1A0408602058014A10BE14802109AE563
:10560000C0016521BE14BE1E808BFE1EA30DA20428
:10561000401B92551400FD214E1264044407FA0801
:1056200010039473E4000E6AE6101600A16B140BCD
:10563000140000E51615EC048D1BE08022148AF599
:10564000EC080000F8801625500583AB0206000424
:105650005615C000A12B588010158825833161880C
:1056600000342294801FE8808265A11BE18C101514
:105670002C14801F8205A11B4408820B8175FC3805
:10568000FC384408FC048145FC384408819BA20492
:10569000FE048835910B80044E6886B53FFF47E5D0
:1056A000EC1016B0A10B8101A2048625A10B2004E9
:1056B000A10B82B5FE748465900B1C0E6801400836
:1056C0009C84C000E875A18B7E8E8195E6D5A10BE8
:1056D000BE048155A10B8004A0F1E4F5F67C0C0C0E
:1056E000C1C3DD93E100000CFA00004C8301001BF4
:1056F000EFFC76088105C143FA8002140006E11B25
:1057000000069422DD93D462F800040C6C501EF065
:10571000E47C034A826B3C5EFC1EBE5E42668E05E4
:105720000C4AF0020634647C5E15FA804A0E0004CE
:105730005E259FFC061A00081E25E4004422800412
:105740005E2598141E2580001E5580004A50800852
:105750004422907C5E2599941E258004422080047A
:1057600018149C0040003CB5BC341814024400D509
:10577000E11BFA80DC3C18C4E2320066420E28F1DC
:10578000C01060010C0C8C2B8775F000017E28F195
:105790000C0CFFF8DD93F0006C401EF0E47C014A35
:1057A000BE2EBC2E8685FC2EE47C000A4406844571
:1057B0003E2EF002FC1EC121841FBE14BC14BC1E70
:1057C000BE29FC24BE1EA41F0006BE148155E2069D
:1057D000F87E4006F0FE00065D9381017FE5A0F1B2
:1057E000FFF801AEE2C0041C041FC111F07C4400AC
:1057F000021CA41FDD93E340E47C040A40880424D7
:105800000000060E08308010481204105802D0889C
:1058100002067190FFFC600000C483C7020FF08095
:10582000700142C0610BDFFC73FD40C04807C0033C
:1058300000A5D0175D93A20FFFF8018E60010286CC
:10584000A20FF8004006900EA10DFC12400682C582
:10585000A10DFC1A400682150206FC0AC020600158
:105860008075830DF372004681015D93FA7C040C10
:10587000EC301EF0864B088B81713E2E405A006B37
:105880007C7EE506425A8131882B6586EFF84F68A9
:1058900067D10000448640014212E03C8131729C95
:1058A000EFF84568000017A4C0046401729C42121E
:1058B0001974D707E0D41614FF0120BF001401BBF0
:1058C00057FEE1ACA10B1FFC60381409DFFC57FE4A
:1058D00081111B940AF01C241504E420BE44A10B82
:1058E0008008001B06148004901B7B00E80043C85E
:1058F000FC04BC0EE0180E496834AA245082A01B98
:105900008E0B7B90683461483E0E8C4B850581A1DF
:105910000E29D90A42BAE01C48BAE502062065827F
:105920008301E41C0203A70F42428111902172847B
:10593000EFF850487FFD45FE82A1403F41FEC50D76
:10594000003F1FFD41FEA11BC03F1FFD91ADE50EB5
:10595000BE04F8151E05A10B98F10000F27C0C0C9A
:10596000C1C3DD935896211B0214E008180640AC11
:10597000442AC000A14B4106000002068008589648
:10598000FF1182650244023D6037E10491800214F8
:10599000421A86132023E0928223980BDD93942EE3
:1059A000FA04044C8111026B6000450666D88C0B2A
:1059B00081716FF866000060E4C00260912101A56A
:1059C0000420067E4073EC044275F820C17CF00888
:1059D000FCF5A12B7FF4410EE03803066028050694
:1059E000FFD4470E486281F500007180927EEC2062
:1059F0004862107E107EF088F08448628211107632
:105A0000870B882141F6FC358111600C6F404C01F9
:105A1000674400606398C0038F216FF86561006080
:105A200002604008C003676105060195067EE00834
:105A3000EC040420F0084275A12BC17C0C4CFE350F
:105A4000DD93F2046FD10019A11BC0050009824546
:105A5000C006602DF3F04000000CA90BDD93E200BE
:105A600081015D93F0804412EC7004298405A12B20
:105A7000E03C0229E682402A02098013C0056B71CE
:105A8000EC140000E40800CAE200000C5D93DD9312
:105A9000C1C38101F804040C603C02396770021034
:105AA0000A04C0030420608C0455E64058227C148C
:105AB000463AF094817166820834B264C2376088D5
:105AC000FC100245486288538613729C0804324ECB
:105AD000305EE0880213844340016C010835802366
