:020000040800F2
:10000000D8350020A9010008393F00081534000840
:10001000353F0008DD0900086D50000800000000B1
:10002000000000000000000000000000BD400008CB
:10003000750F000800000000A93F0008ED4C000803
:10004000C3010008C3010008C3010008C301000880
:10005000C3010008C3010008C3010008C301000870
:10006000C3010008C3010008850F0008C301000890
:10007000C3010008C3010008C3010008C301000850
:10008000C3010008C3010008C3010008000000000C
:10009000000000000000000000000000C301000894
:1000A000C3010008C3010008C3010008C301000820
:1000B000C3010008C3010008C3010008C301000810
:1000C000C3010008C3010008C3010008C301000800
:1000D000C3010008C3010008C301000800000000BC
:1000E000790F0008C3010008C301000800000000E8
:1000F000000000000000000000000000C301000834
:1001000000000000C3010008C3010008C30100088B
:1001100000000000000000000000000000000000DF
:10012000C3010008C3010008C3010008C30100089F
:10013000C3010008000000000000000000000000F3
:10014000000000000000000000000000C3010008E3
:10015000C3010008C3010008C3010008C30100086F
:10016000C3010008C30100080000000000000000F7
:10017000000000000000000000000000000000007F
:1001800000000000C30100080000000000000000A3
:10019000C3010008DFF80CD000F098FA00480047CF
:1001A00019580108D83500200648804706480047FE
:1001B000FEE7FEE7FEE7FEE7FEE7FEE7FEE7FEE717
:1001C000FEE7FEE7B14D0008950100082DE9F05F5C
:1001D0000546002092469B468846064681464024B6
:1001E0001BE0284641464746224600F0A6F8534603
:1001F0005A46C01A914110D311461846224600F0C3
:100200008DF82D1A67EB01084F4622460120002188
:1002100000F084F817EB00094E41201EA4F1010400
:10022000DFDC484631462A464346BDE8F09F2DE9CB
:10023000F0410024061B254671F1000605DA012471
:100240000027D0EB070067EB0101161E73F10006D3
:1002500005DA0027D2EB0702012567EB0303FFF75E
:10026000B5FF86460E4617469C46AC4204D0002594
:10027000D0EB050E65EB010624B10020D2EB0007A0
:1002800060EB030C704631463A466346BDE8F081A8
:1002900040EA01039B0703D009E008C9121F08C008
:1002A000042AFAD203E011F8013B00F8013B521E88
:1002B000F9D27047D2B201E000F8012B491EFBD2FF
:1002C00070470022F6E710B513460A460446194661
:1002D000FFF7F0FF204610BD10B5044604E00B7890
:1002E00000F8013B03B1491C521EF8D2204610BD54
:1002F00030B50B46014600202022012409E021FAF6
:1003000002F59D4205D303FA02F5491B04FA02F5F2
:100310002844151EA2F10102F1DC30BD202A04DBC5
:10032000203A00FA02F1002070479140C2F1200308
:1003300020FA03F3194390407047202A04DB203A47
:1003400021FA02F00021704721FA02F3D040C2F1F5
:10035000200291400843194670472DE9FE4F804620
:1003600081EA0300C00F0C46009021F0004123F009
:100370000045B8EB0200A94105D24046214690460F
:100380001C460B46024623F00040104347D0270D81
:10039000C7F30A00C3F30A510290401A01904028A3
:1003A0006BDAC3F3130040F4801B0098924620B12F
:1003B0000023D2EB030A63EB0B0B01985946C0F103
:1003C00040025046FFF7AAFF06460D4650465946E2
:1003D000019A00F08DF910EB08006141002487EAD2
:1003E000115284EAE7731A4340D0009A62B3019A2B
:1003F000012A4FEA075215DC001B61EB02014FF0A6
:10040000004202EA0752CDE90042001C41F580118A
:1004100032462B4600F08DF903B0BDE8F08F404620
:100420002146F9E7001B61EB0201001C41F5801336
:1004300000185B412018A2F5001747EB030140EAC2
:10044000D570B6196D4111E06D084FEA360645EAE0
:10045000C0754FEA0752001B61EB0201001C41F519
:10046000801149084FEA30000019514132462B46AD
:1004700003B0BDE8F04F00F04DB9009801224000F4
:100480000023D0EB020263EBE073009821464FEAB1
:10049000E074B8EB000061EB0401E9E783F000438E
:1004A0005BE781F0004158E72DE9FE4F81EA030444
:1004B00004F0004421F0004100944FF0000B23F0C1
:1004C000004350EA01045ED052EA03045BD0C3F358
:1004D0000A54C1F30A552C44A4F2F3340194A0FB4E
:1004E0000254C1F3130141F48011C3F3130343F425
:1004F000801301FB024400FB034E840A970A44EA7E
:10050000815447EA8357A4FB076802958D0A05FBCF
:1005100007854FEA932C04FB0C542705029D4FEAF4
:10052000065847EA1637B5EB08056EEB070C870E41
:10053000920E47EA811742EA8312A7FB0201B6EB4B
:100540000B0164EB00042B0D43EA0C335E1844EB03
:100550001C50DA465146E7FB0201C5F313044FEA8B
:100560000B3343EA14534FEA0432019C43EA060377
:10057000A4F10C040294009CCDE900B400F0D9F879
:1005800003B0BDE8F08F00200146F9E72DE9F04DFA
:1005900081EA030404F0004B21F0004514464FF0BB
:1005A000000A23F0004150EA050220D054EA01027B
:1005B0001DD0C5F30A570246C5F31303C1F3130058
:1005C000C1F30A5640F4801543F48013A7EB0608E4
:1005D000101BD64608F2FD3873EB050002D308F174
:1005E000010801E092185B41B8F1000F03DA002026
:1005F0000146BDE8F08D00204FF480110646844688
:100600000EE0171B73EB050705D3121B63EB050305
:1006100006434CEA010C49084FEA300092185B414E
:1006200050EA0107EDD152EA030012D082EA040039
:1006300083EA0501084305D0101BAB4106D2012215
:10064000002306E000224FF0004302E06FF00102B9
:1006500053101AEB06004CEB085110EB0A0041EB6B
:100660000B01BDE8F04D00F055B8C1F30A52C1F3DB
:10067000130140F2FF3341F480119A4202DA002064
:100680000146704740F233439A42A2F2334202DC01
:100690005242FFF752BEFFF741BE000030B5041EC4
:1006A00071F1000404DB4FF00044404264EB0101AF
:1006B000141E73F1000405DB1C464FF00043524248
:1006C00063EB0403994208BF904230BD064C074DCE
:1006D00006E0E06840F0010394E807009847103412
:1006E000AC42F6D3FFF75AFD2C6B01084C6B0108A6
:1006F000202A06DBCB17203A41FA02F043EAE073E6
:1007000006E041FA02F3D040C2F1200291400843D2
:100710001946704710B5141E73F1000408DA401C26
:1007200041F1000192185B411A4301D120F0010010
:1007300010BD2DE9F04D92469B4611B1B1FA81F200
:1007400002E0B0FA80F220329046FFF7E7FD04465F
:100750000F4640EA0A0041EA0B0153465A46084355
:1007600013D0114653EA010019D0C8F14002504697
:10077000FFF7E3FD05460E46504659464246FFF751
:10078000CDFD084305D0012004E020463946BDE8F0
:10079000F08D0020054346EAE0762C4337430A9863
:1007A0006305E40AA0EB08000022FD0A44EA47546E
:1007B0000A3002D500200146E9E701051019694118
:1007C000DDE9084500196941BDE8F04DA2E70000E8
:1007D00080B584B08DF80F00002002909DF80F00C6
:1007E000022804D3FFE76FF00100029028E09DF893
:1007F0000F0040F23001C2F2000151F8201000EB6E
:10080000001242F69840C2F20000019040F8221017
:100810009DF80F1001EB011100EB810004F0DAFBF1
:1008200001989DF80F1001EB011100EB810003F01E
:10083000F1FA20B1FFE76FF003000290FFE7FFE756
:10084000029804B080BD000080B500F017FF80BDA5
:1008500080B582B00020019040F29000C2F200000A
:100860000068D8B1FFE740F29001C2F200010868C9
:100870000138086088B9FFE742F6DC40C2F20000A8
:10088000009002F0C9FD009800F0FEFE20B1FFE7E5
:100890006FF007000190FFE7FFE7FFE7019802B064
:1008A00080BD000080B582B00020019042F6DC419E
:1008B000C2F2000145F20040C4F20000086040F2BC
:1008C0009002C2F200021068411C116018BBFFE7E1
:1008D00042F6DC40C2F2000000F00CFFD0B9FFE7A6
:1008E00042F6DC40C2F2000002F0B2FD019880B98D
:1008F000FFE742F6DC40C2F2000003F001FA20B14B
:10090000FFE76FF00700019002E000200190FFE791
:10091000FFE7FFE7FFE7019802B080BD80B586B032
:10092000ADF816000491ADF80E2000200290BDF83D
:100930001610049ABDF80E30EC464FF48050CCF8F7
:10094000000042F6DC40C2F2000001F02DF890B148
:10095000FFE742F6DC40C2F2000000F0C5FE0428CA
:1009600004D0FFE76FF06500029003E06FF0030032
:100970000290FFE7FFE7029806B080BD80B586B021
:10098000ADF816000491ADF80E2000200290BDF8DD
:100990001610049ABDF80E30EC464FF48050CCF897
:1009A000000042F6DC40C2F2000001F009FA90B10A
:1009B000FFE742F6DC40C2F2000000F095FE04289A
:1009C00004D0FFE76FF06500029003E06FF00300D2
:1009D0000290FFE7FFE7029806B080BDFFE7FEE761
:1009E00000281CBF6FF00100704780B540F238004E
:1009F000C2F20000026940F27C00C2F2000000680E
:100A000090476FF0040101EAE07080BD00281CBF30
:100A10006FF00100704780B540F23800C2F200006C
:100A2000C26840F27C00C2F20000006890476FF09C
:100A3000040101EAE07080BD00281CBF6FF00100D6
:100A4000704780B540F23800C2F20000C26940F23F
:100A50007C00C2F20000006890476FF0040101EAD8
:100A6000E07080BD00281CBF6FF00100704780B5AA
:100A700014F088FF04F002FD002818BF4FF0FF308B
:100A800080BD000000281CBF6FF00100704780B5DA
:100A900040F23800C2F20000826840F27C00C2F2EC
:100AA0000000006890476FF0040101EAE07080BD2B
:100AB00000281CBF6FF00100704780B540F238007D
:100AC000C2F20000026A40F27C00C2F2000000683C
:100AD00090476FF0040101EAE07080BD80B58AB0F4
:100AE00009900891ADF81E2006930898C07D8DF8F6
:100AF000160040F20400C2F2000000690490099858
:100B0000183003909DF81610881F0191022809D310
:100B1000FFE701980A38032804D3FFE70198FF286C
:100B200001D1FFE73CE0FFE701208DF815000398B5
:100B3000D0F8AC04029002980499884204DBFFE7E5
:100B4000BDF91E0020B9FFE700208DF81500FFE772
:100B5000099842F66E21405C8DF817009DF8170049
:100B6000069908709DF8160048B9FFE70898B0F993
:100B700014009DF81710069A00F012FA10E09DF884
:100B8000150040B1FFE7BDF91E009DF81710069A49
:100B900000F006FA03E0069903200870FFE7FFE77C
:100BA0000AB080BD82B0019000208DF803009DF84E
:100BB00004000F280FDCFFE79DF805000F280ADC72
:100BC000FFE79DF806000F2805DCFFE79DF807000A
:100BD000102804DBFFE7FC208DF80300FFE79DF8F9
:100BE00004009DF80610884207DCFFE79DF8050029
:100BF0009DF80710884204DAFFE7FC208DF8030017
:100C0000FFE79DF9030002B0704700008AB08DF83D
:100C100027008DF82610089200208DF81F00032071
:100C20008DF81C004FF48170ADF81A001B208DF870
:100C3000180041F62160ADF816001A208DF8140056
:100C400041F61900ADF8120008208DF8100040F2AE
:100C50000760ADF80E0026208DF80C0042F22450FB
:100C6000ADF80A000899012008709DF82600014699
:100C70000191012804D0FFE70198022804D007E081
:100C800000208DF81E0007E001208DF81E0003E013
:100C900002208DF81E00FFE79DF82700013801466D
:100CA0000091082837D80099DFE801F00D151D05DF
:100CB00035352D2531009DF81E100DF11A00405CD0
:100CC000089908702BE09DF81E100DF11600405C8D
:100CD0000899087023E09DF81E100DF11200405C89
:100CE000089908701BE09DF81E100DF10E00405C85
:100CF0000899087013E09DF81E100DF10A00405C81
:100D0000089908700BE008991120087007E008990D
:100D10002720087003E0F8208DF81F00FFE79DF9F9
:100D20001F000AB0704700008EB08DF837008DF8B4
:100D300036100C929620ADF82E004FF49670ADF858
:100D40002C001E20ADF82A004BF23330C0F27500A3
:100D500007904CF6CD40C0F23000069041F69A1054
:100D600005909DF8370020B9FFE700208DF80E00B0
:100D70007AE00C98B0F94410B0F94800401ABDF977
:100D80002E10884205DAFFE79DF83600072804D1C7
:100D9000FFE732208DF80E0065E00C98B0F94600B0
:100DA000BDF92C10884205DAFFE7BDF82A000004DF
:100DB000099006E005980C99B1F94610484309904E
:100DC000FFE7099808B3FFE706980C99898F484315
:100DD00004900498099900EB510004900498099933
:100DE000B0FBF1F004900498000404900498079973
:100DF000884205D8FFE707980499401A089003E055
:100E00004FF448100890FFE703E04FF4C800089043
:100E1000FFE7BDF822008DF80F009DF80F00652850
:100E200003DBFFE76420029003E09DF80F000290CF
:100E3000FFE7029833280FDBFFE79DF80F006528D6
:100E400003DBFFE76420019003E09DF80F000190B1
:100E5000FFE70198009002E032200090FFE7009841
:100E60008DF80E00FFE7FFE79DF80E000EB070470B
:100E700082B08DF807009DF8070005380146009103
:100E800012282CD80099DFE801F00A0E162A262A2B
:100E90002A2A2A2A2A2A2A2A121E2A221A00042048
:100EA0008DF806001FE001208DF806001BE00620EB
:100EB0008DF8060017E007208DF8060013E00C20DF
:100EC0008DF806000FE007208DF806000BE00B20E0
:100ED0008DF8060007E000208DF8060003E0FF20F3
:100EE0008DF80600FFE79DF8060002B0704700008D
:100EF00082B08DF807009DF8070004380146009184
:100F00000F282ED80099DFE801F01410181C2428AF
:100F10002C2C202C2C2C2C2C080C0A208DF80600B4
:100F200023E006208DF806001FE004208DF806005F
:100F30001BE002208DF8060017E001208DF8060066
:100F400013E007208DF806000FE009208DF8060059
:100F50000BE003208DF8060007E000208DF8060066
:100F600003E0FF208DF80600FFE79DF8060002B0C1
:100F7000704700007047000080B54FF4005000F04B
:100F800097F980BD80B5102000F092F980BD000077
:100F900081B0EFF3108072B60090FFE7FEE700002B
:100FA00085B0ADF812008DF8111003924FF4167051
:100FB000ADF80A004FF42F70ADF808004FF4AF60A1
:100FC000ADF8060040F2DC50ADF804009DF81100C9
:100FD00001460091012804D0FFE70098022818D0AC
:100FE0002FE0BDF91200BDF80410884204DDFFE7D0
:100FF0000399032008700BE0BDF91200BDF808103A
:10100000884204DDFFE7039902200870FFE7FFE74D
:101010002FE0BDF91200BDF80410884204DDFFE79F
:101020000399032008700BE0BDF91200BDF80A1007
:10103000884204DAFFE7039901200870FFE7FFE721
:1010400017E0BDF91200BDF80A10884204DAFFE784
:101050000399012008700BE0BDF91200BDF80610DD
:10106000884204DAFFE7039902200870FFE7FFE7F0
:10107000FFE705B07047000080B584B0039000F032
:10108000FDFA0290039801900198013048B1FFE702
:1010900040F27000C2F2000001780198084401900B
:1010A000FFE7FFE700F0EAFA0299401A0199884247
:1010B00001D2FFE7F6E704B080BD00008BB00A90D4
:1010C000099100200790069005900890FFE7089886
:1010D0000F2800F2D980FFE7089901208840079087
:1010E000099807990840069006980799884240F0A9
:1010F000C680FFE7089820F0030043F60801C4F219
:10110000010140580590089800F0030081000F206D
:1011100000FA01F1059808400590059804900A9896
:101120000021C4F20201884203D1FFE700200390AE
:1011300034E00A9840F20041C4F20201884203D12F
:10114000FFE70120029026E00A9840F60001C4F271
:101150000201884203D1FFE70220019018E00A98BB
:1011600040F60041C4F20201884203D1FFE70320A8
:1011700000900AE00A9941F20002C4F2020207203C
:10118000914208BF04200090FFE700980190FFE71C
:1011900001980290FFE702980390FFE704980399F3
:1011A000C9B2089A02F0030292009140884233D1FA
:1011B000FFE7069A43F60041C4F201010868904334
:1011C0000860069A43F60441C4F20101086890439E
:1011D0000860069A43F60C41C4F201010868904386
:1011E0000860069A43F60841C4F20101086890437A
:1011F0000860089800F0030081000F2088400590E7
:10120000059B089820F0030143F60802C4F201028E
:10121000885898438850FFE708984100032000FA57
:1012200001F30A9A116899431160DDF820C00CF0AF
:1012300007018A000F2101FA02F30A996FF00302F5
:1012400002EA5C020A44116A994311620899490052
:1012500000FA01F30A9AD1689943D160089A0121F2
:1012600001FA02F30A9A51689943516008994900BA
:1012700000FA01F20A99886890438860FFE7FFE767
:1012800008980130089022E70BB0704781B0ADF8A4
:101290000200BDF80200102807D1FFE740F200115C
:1012A000C2F2000101200870FFE701B070470000A2
:1012B00080B582B0ADF8060043F61440C4F20100D8
:1012C0000068BDF8061008420CD0FFE7BDF8060024
:1012D00043F61441C4F201010860BDF80600FFF7AF
:1012E000D5FFFFE702B080BD8BB00A9009910020C6
:1012F0000790069005900890FFE708980F2800F2E5
:10130000A281FFE7089901208840079009980068AA
:1013100007990840069006980799884240F08E8108
:10132000FFE70998406800F00300012807D0FFE7B5
:101330000998406800F0030002282FD1FFE70A98BF
:101340008068059008984100032000FA01F1059893
:10135000884305900998C0680899490000FA01F18E
:1013600005980843059005980A9988600A9840688E
:1013700005900899012000FA01F10598884305902D
:1013800009984068C0F30010089900FA01F1059827
:101390000843059005980A994860FFE70998406856
:1013A00000F00300032818D0FFE70A98C0680590F2
:1013B00008984100032000FA01F105988843059040
:1013C000099880680899490000FA01F105980843D6
:1013D000059005980A99C860FFE70998406800F0F1
:1013E0000300022826D1FFE70A9808996FF003024C
:1013F00002EA51010844006A0590089800F00700CD
:1014000081000F2000FA01F10598884305900998A2
:101410000069089901F00701890000FA01F10598B7
:101420000843059005980A99089B02EA5302114463
:101430000862FFE70A9800680590089841000320B9
:1014400000FA01F10598884305900998406800F07A
:1014500003000899490000FA01F105980843059036
:1014600005980A990860099880798007002800F09B
:10147000E480FFE7FFE70020049043F64400C4F255
:101480000200016841F480410160006800F480407E
:1014900004900498FFE7089820F0030043F6080141
:1014A000C4F2010140580590089800F00300810043
:1014B0000F2000FA01F10598884305900A98002151
:1014C000C4F20201884203D1FFE70020039034E018
:1014D0000A9840F20041C4F20201884203D1FFE7BA
:1014E0000120029026E00A9840F60001C4F20201B1
:1014F000884203D1FFE70220019018E00A9840F6E5
:101500000041C4F20201884203D1FFE703200090AA
:101510000AE00A9941F20002C4F202020720914255
:1015200008BF04200090FFE700980190FFE70198B2
:101530000290FFE702980390FFE70398C0B2089972
:1015400001F00301890000FA01F1059808430590B4
:101550000598089921F0030143F60802C4F201023C
:10156000885043F60840C4F20100006805900699CF
:1015700005988843059009988079C006002805D50C
:10158000FFE70699059808430590FFE7059843F69D
:101590000841C4F20101086043F60C40C4F20100A6
:1015A0000068059006990598884305900998807908
:1015B0008006002805D5FFE70699059808430590A1
:1015C000FFE7059843F60C41C4F20101086043F6B9
:1015D0000440C4F20100006805900699059888430C
:1015E0000590099880798007002805D5FFE70699BE
:1015F000059808430590FFE7059843F60441C4F2B7
:101600000101086043F60040C4F201000068059043
:10161000069905988843059009988079C00728B1F4
:10162000FFE70699059808430590FFE7059843F6FC
:101630000041C4F201010860FFE7FFE7FFE70898F7
:101640000130089059E60BB07047000082B001905D
:10165000ADF802108DF801209DF8010028B1FFE7D8
:10166000BDF802000199886105E0BDF802000004A0
:1016700001998861FFE702B07047000042F65450BC
:10168000C2F200000068704780B582B000900098F8
:1016900020B9FFE701208DF8070021E00099242000
:1016A00081F83D0000980168086820F0010008609A
:1016B000009800F089FC009900200864009981F8E6
:1016C0003D0000990863009981F83E00FFE700990A
:1016D000002081F83C00FFE700208DF80700FFE7BD
:1016E0009DF8070002B080BD81B000900098006CAA
:1016F00001B0704781B00090009890F83D0001B0B3
:101700007047000080B58EB00C900C9820B9FFE7B0
:1017100001208DF8370043E10C9890F83D0040B966
:10172000FFE70C99002081F83C000C9800F050FC79
:10173000FFE70C99242081F83D000C9801680868A7
:1017400020F0010008600C980168086840F400402F
:1017500008600C980168086820F40040086000F0F8
:1017600055FF0A900C98406848F2A061C0F2010150
:1017700088420BD8FFE70A9948F28042C0F21E0265
:101780000020914238BF012009900AE00A9940F6F2
:101790000012C0F23D020020914238BF01200990A2
:1017A000FFE70998012804D1FFE701208DF83700F1
:1017B000F6E00A984DF68361C4F21B31A0FB0110DC
:1017C000800C0B900C980068406820F03F000B994B
:1017D00008430C99096848600C980068006A20F07A
:1017E0003F0008900C98406848F2A061C0F20101E7
:1017F000884204D8FFE70B98013007900EE00B9861
:101800004FF49671484344F6D351C1F26201A0FBF4
:101810000101012000EB91100790FFE7089807995C
:1018200008430C99096808620C980068C0694CF676
:10183000FF71884306900C98406848F2A061C0F29E
:10184000010188421FD8FFE70A9801380C994968BE
:101850004900B0FBF1F001306FF31F30032803D8CB
:10186000FFE7042005900BE00A9801380C994968BD
:101870004900B0FBF1F001306FF31F300590FFE736
:10188000059804904CE00C98806868B9FFE70A98C6
:1018900001380C99496801EB4101B0FBF1F00130CE
:1018A0006FF31F3003900DE00A9801380C994968D6
:1018B00019225143B0FBF1F00130042161F31F30D4
:1018C0000390FFE70398000518B9FFE70120029095
:1018D00023E00C98806868B9FFE70A9801380C99F2
:1018E000496801EB4101B0FBF1F001306FF31F30AB
:1018F00001900DE00A9801380C994968192251436A
:10190000B0FBF1F00130042161F31F300190FFE7DB
:10191000019840F400400290FFE702980490FFE72E
:101920000698049908430C990968C8610C980068E6
:10193000006820F0C0000C9B1968DA691B6A1A4322
:10194000104308600C980068806848F2FF318843B3
:101950000C9A1168D36812691A43104388600C9876
:101960000068C06820F0FF000C9B19685A699B69E9
:101970001A431043C8600C980168086840F00100E1
:1019800008600C99002008640C9A202182F83D1010
:101990000C9908630C9981F83E008DF83700FFE739
:1019A0009DF837000EB080BD80B58CB0DDF838C032
:1019B0000A90ADF826100892ADF81E30FFF75EFED3
:1019C00006900A9890F83D00202840F0F081FFE74B
:1019D0000A9806996A4611600221C0F2100101229C
:1019E000192301F065FF20B1FFE702208DF82F00D9
:1019F000E1E1FFE70A9890F83C00012804D1FFE7F5
:101A000002208DF82F00D6E10A99012081F83C00D0
:101A1000FFE7FFE70A9800680068C00738B9FFE7EA
:101A20000A980168086840F001000860FFE70A981A
:101A30000168086820F4006008600A99222081F893
:101A40003D000A99102081F83E000A9900200864A0
:101A500008980A994862BDF81E000A9948850A98B4
:101A6000408D0A9908850A990020CFF6FF70C86258
:101A70000A98BDF826100E9A069B01F06DFD20B164
:101A8000FFE701208DF82F0095E10A98008DA0B99D
:101A9000FFE7FFE7002005900A980068406905907D
:101AA0000A980068806905900598FFE70A98016820
:101AB000086840F40070086053E00A98008D01281F
:101AC0001AD1FFE70A980168086820F4806008606E
:101AD000FFE7002004900A980068406904900A9883
:101AE0000068806904900498FFE70A980168086814
:101AF00040F40070086033E00A98008D02281AD183
:101B0000FFE70A980168086820F4806008600A9876
:101B10000168086840F400600860FFE70020039057
:101B20000A980068406903900A98006880690390E9
:101B30000398FFE713E00A980168086840F48060A2
:101B40000860FFE7002002900A9800684069029050
:101B50000A980068806902900298FFE7FFE7FFE7B4
:101B6000FFE7FFE70A98008D002800F00E81FFE7ED
:101B70000A98008D032800F2CC80FFE70A98008DB8
:101B800001281ED1FFE70A980E99069A01F078FF06
:101B900020B1FFE701208DF82F000CE10A980068C2
:101BA00000690A99496A08700A99486A01304862CE
:101BB0000A99088D013808850A99488D01384885A9
:101BC000A6E00A98008D02283CD1FFE70A980E9BF8
:101BD00006996A4611600421C0F20101002201F059
:101BE00067FE20B1FFE701208DF82F00E3E00A989F
:101BF0000168086840F4007008600A98006800698D
:101C00000A99496A08700A99486A013048620A9933
:101C1000088D013808850A99488D013848850A9849
:101C2000006800690A99496A08700A99486A01308F
:101C300048620A99088D013808850A99488D01384B
:101C4000488564E00A980E9B06996A461160042153
:101C5000C0F20101002201F02BFE20B1FFE70120BC
:101C60008DF82F00A7E00A980168086820F48060CA
:101C700008600A98006800690A99496A08700A9918
:101C8000486A013048620A99088D013808850A9926
:101C9000488D013848850A980E9B06996A4611605E
:101CA0000421C0F20101002201F002FE20B1FFE791
:101CB00001208DF82F007EE00A980168086840F442
:101CC000007008600A98006800690A99496A0870FB
:101CD0000A99486A013048620A99088D01380885D6
:101CE0000A99488D013848850A98006800690A9960
:101CF000496A08700A99486A013048620A99088D51
:101D0000013808850A99488D01384885FFE7FFE7C3
:101D10003AE00A980E99069A01F0B2FE20B1FFE768
:101D200001208DF82F0046E00A98006800690A99A2
:101D3000496A08700A99486A013048620A99088D10
:101D4000013808850A99488D013848850A98006845
:101D5000406900F004010120B0EB910F13D1FFE7BF
:101D60000A98006800690A99496A08700A99486ADD
:101D7000013048620A99088D013808850A99488D12
:101D800001384885FFE7FFE7ECE60A99202081F853
:101D90003D000A99002081F83E00FFE70A990020E3
:101DA00081F83C00FFE700208DF82F0003E00220BF
:101DB0008DF82F00FFE79DF82F000CB080BD0000CC
:101DC00080B588B0DDF828C00690ADF816100492F2
:101DD000ADF80E30FFF752FC0290069890F83D00E7
:101DE000202840F0E980FFE7069802996A461160D2
:101DF0000221C0F210010122192301F059FD20B186
:101E0000FFE702208DF81F00DAE0FFE7069890F860
:101E10003C00012804D1FFE702208DF81F00CFE02D
:101E20000699012081F83C00FFE7FFE7069800686B
:101E30000068C00738B9FFE706980168086840F0F5
:101E400001000860FFE706980168086820F4006058
:101E500008600699212081F83D000699102081F83C
:101E60003E00069900200864049806994862BDF86F
:101E70000E00069948850698408D069908850699B2
:101E80000020CFF6FF70C8620698BDF816100A9AB7
:101E9000029B01F037FC20B1FFE701208DF81F0005
:101EA0008EE0FFE7002001900698006840690190ED
:101EB00006980068806901900198FFE7FFE706989F
:101EC000008D002860D0FFE706980A99029A01F079
:101ED0003BFE80B1FFE70698006C042807D1FFE7BE
:101EE00006980168086840F400700860FFE7012068
:101EF0008DF81F0064E006980168406A0078086168
:101F00000699486A013048620699488D013848852B
:101F10000699088D0138088506980068406900F028
:101F200004010120B0EB910F16D1FFE70698008D58
:101F300090B1FFE706980168406A00780861069949
:101F4000486A013048620699488D013848850699EB
:101F5000088D01380885FFE706980A99029A01F072
:101F60005BFC80B1FFE70698006C042807D1FFE70F
:101F700006980168086840F400700860FFE70120D7
:101F80008DF81F001CE09AE706980168086840F485
:101F9000007008600699202081F83D000699002015
:101FA00081F83E00FFE70699002081F83C00FFE73A
:101FB00000208DF81F0003E002208DF81F00FFE7CE
:101FC0009DF81F0008B080BD81B0009001B070473F
:101FD00081B0009001B0704740F27000C2F2000082
:101FE000027842F65451C2F20001086810440860B9
:101FF0007047000080B582B043F60041C4F2020190
:10200000086840F400700860086840F48060086068
:10201000086840F480700860032000F08FF800200A
:10202000019000F005F800F03BF8019802B080BD87
:1020300080B582B0009040F23400C2F20000006827
:1020400040F27001C2F200010A784FF47A71B1FBDC
:10205000F2F1B0FBF1F001F0DBF820B1FFE7012075
:102060008DF8070018E000980F280DD8FFE70099B9
:102070004FF0FF30002200F047F8009840F2740162
:10208000C2F20001086003E001208DF8070003E0C0
:1020900000208DF80700FFE79DF8070002B080BD23
:1020A00080B582B0FFE70020019043F64400C4F2FF
:1020B0000200016841F480410160006800F4804042
:1020C00001900198FFE7FFE70020009043F64000F1
:1020D000C4F20200016841F080510160006800F024
:1020E000805000900098FFE7072000F027F802B02A
:1020F00080BD000080B582B08DF807009DF9070013
:1021000013F0F2FA02B080BD80B586B08DF81700EA
:10211000049103920020029013F0FEFA02909DF9C0
:102120001700019002980499039A01F007FF0146F5
:10213000019813F0F9FA06B080BD000080B582B0B6
:102140000190019813F012FB02B080BD80B586B0FB
:10215000049000200390029004980078C00730B9E2
:10216000FFE704980078400700284ED5FFE7682174
:10217000C4F2472100200860FFF780FA0390FFE7D0
:1021800043F60000C4F20200006800F00061002085
:10219000B0EBD16F0CD0FFE7FFF770FA0399401A4C
:1021A000032804D3FFE703208DF81700F2E0E7E7E8
:1021B000049948688968800140EA017043F6840107
:1021C000C4F2020108606821C4F2472101200860BE
:1021D000FFF754FA0390FFE743F60000C4F2020051
:1021E000006800F000610020B0EBD16F0CD1FFE778
:1021F000FFF744FA0399401A032804D3FFE70320AA
:102200008DF81700C6E0E7E7FFE70498007880073D
:10221000002840F1AD80FFE7FFE70020019043F682
:102220004000C4F20200016841F080510160006882
:1022300000F0805001900198FFE747F20001C4F2DE
:102240000001086840F480700860FFF717FA0390F7
:10225000FFE747F20000C4F200000068C005002854
:102260000CD4FFE7FFF70AFA0399401A032804D3B6
:10227000FFE703208DF817008CE0EAE743F67000D3
:10228000C4F20200006800F4407002900298002836
:102290003ED0FFE702980499C96801F44071884272
:1022A00036D0FFE743F67000C4F20200016821F463
:1022B0004071029140F64062C4F247220121116050
:1022C00000211160029901600068C007F8B1FFE7C2
:1022D000FFF7D4F90390FFE743F67000C4F2020061
:1022E000006800F002010020B0EB510F0ED1FFE7B3
:1022F000FFF7C4F90399401A41F28931884204D3A7
:10230000FFE703208DF8170044E0E5E7FFE7FFE76C
:10231000FFE70498C06800F44070B0F5407F11D129
:10232000FFE743F60801C4F20201086820F4F81040
:10233000049AD2684FF6FF43C0F6FF731A40104369
:10234000086008E043F60801C4F20201086820F4BE
:10235000F8100860FFE70498C2686FF31F3243F675
:102360007001C4F20201086810430860FFE7FFE74C
:10237000049800780007002808D5FFE70498007C3F
:1023800041F2E011C4F247210860FFE700208DF818
:102390001700FFE79DF8170006B080BD80B584B038
:1023A00002900191029820B9FFE701208DF80F00FB
:1023B00021E1019843F60041C4F20201096801F0ED
:1023C0000701884212D9FFE7019943F60040C4F2A1
:1023D00002000170006800F007000199884204D0F3
:1023E000FFE701208DF80F0005E1FFE70298007874
:1023F000800700282AD5FFE70298007840070028C8
:1024000009D5FFE743F60801C4F20201086840F469
:10241000E0500860FFE7029800780007002809D51F
:10242000FFE743F60801C4F20201086840F4604087
:102430000860FFE743F60801C4F20201086820F0D3
:10244000F000029A926810430860FFE70298007853
:10245000C00700286ED0FFE702984068012811D11C
:10246000FFE743F60000C4F20200006800F4003108
:102470000020B0EB514F04D1FFE701208DF80F0091
:10248000B9E02CE002984068022805D0FFE70298E6
:102490004068032811D1FFE743F60000C4F20200B0
:1024A000006800F000710020B0EB516F04D1FFE72D
:1024B00001208DF80F009EE010E043F60000C4F20A
:1024C0000200006800F002010020B0EB510F04D1BF
:1024D000FFE701208DF80F008DE0FFE7FFE743F6EF
:1024E0000801C4F20201086820F00300029A526851
:1024F00010430860FFF7C2F80090FFE743F60800BA
:10250000C4F20200006800F00C0002994968B0EBC8
:10251000810F0ED0FFE7FFF7B1F80099401A41F2A2
:102520008931884204D3FFE703208DF80F0062E071
:10253000E4E7FFE7019843F60041C4F202010968AD
:1025400001F00701884212D2FFE7019943F60040EB
:10255000C4F202000170006800F00700019988428F
:1025600004D0FFE701208DF80F0044E0FFE7029858
:102570000078400700280CD5FFE743F60801C4F2B5
:102580000201086820F4E050029AD2681043086003
:10259000FFE702980078000700280DD5FFE743F613
:1025A0000801C4F20201086820F46040029A12692E
:1025B00040EAC2000860FFE700F04CF843F608016B
:1025C000C4F202010968C9B20A0946F64E21C0F6F2
:1025D0000101895CC84040F23401C2F20001086088
:1025E00040F27400C2F200000068FFF721FD0020F5
:1025F0008DF80F00FFE79DF80F0004B080BD0000CC
:1026000040F23400C2F200000068704780B5FFF766
:10261000F7FF43F60801C4F202010968C1F3822200
:1026200046F65E21C0F60101895CC84080BD00000D
:1026300080B5FFF7E5FF43F60801C4F2020109681F
:1026400089B24A0B46F65E21C0F60101895CC8409A
:1026500080BD000080B586B00020059004900390F6
:10266000029043F60800C4F20200006800F00C007B
:102670000146019140B1FFE7019804280AD0FFE725
:10268000019808280CD04FE042F20040C0F2F4005C
:1026900002904FE041F20020C0F27A00029049E03F
:1026A00043F60400C4F20200016801F03F01059105
:1026B00000684002002813D5FFE743F60400C4F287
:1026C00002000068C0F3881041F20021C0F27A01D4
:1026D000A0FB0101059A0023FDF778FD049012E0AC
:1026E00043F60400C4F202000068C0F3881042F20E
:1026F0000041C0F2F401A0FB0101059A0023FDF79F
:1027000065FD0490FFE743F60400C4F20200006890
:1027100000F44031022000EBD1300390049803997B
:10272000B0FBF1F0029005E042F20040C0F2F4008C
:102730000290FFE7029806B080BD000080B586B029
:102740000490049820B9FFE701208DF8170050E3AA
:1027500004980078C007002800F0A580FFE743F642
:102760000800C4F20200006800F00C00042813D036
:10277000FFE743F60800C4F20200006800F00C0016
:1027800008281ED1FFE743F60400C4F202000068E7
:102790004002002815D5FFE743F60000C4F202000E
:1027A000006800F400310020B0EB514F08D0FFE783
:1027B0000498406820B9FFE701208DF8170018E35E
:1027C00070E0FFE704984068B0F5803F09D1FFE76B
:1027D00043F60001C4F20201086840F4803008604A
:1027E00020E004984068B0F5A02F0DD1FFE743F634
:1027F0000001C4F20201086840F480200860086803
:1028000040F4803008600CE043F60001C4F202019D
:10281000086820F480300860086820F48020086090
:10282000FFE7FFE7FFE704984068E8B1FFE7FEF73E
:1028300025FF0390FFE743F60000C4F202000068A2
:1028400000F400310020B0EB514F0CD1FFE7FEF750
:1028500015FF0399401A652804D3FFE703208DF87C
:102860001700C6E2E7E71CE0FEF708FF0390FFE76A
:1028700043F60000C4F20200006800F400310020BA
:10288000B0EB514F0CD0FFE7FEF7F8FE0399401A6A
:10289000652804D3FFE703208DF81700A9E2E7E7D6
:1028A000FFE7FFE7FFE7049800788007002840F182
:1028B0009680FFE743F60800C4F20200006810F0BB
:1028C0000C0F13D0FFE743F60800C4F202000068C3
:1028D00000F00C0008282CD1FFE743F60400C4F2F6
:1028E000020000684002002823D4FFE743F60000FE
:1028F000C4F20200006800F002010020B0EB510FAA
:1029000009D0FFE70498C068012804D0FFE7012040
:102910008DF817006DE243F60001C4F20201086869
:1029200020F0F800049A126940EAC2000860FFE74C
:1029300054E00498C06870B3FFE70021C4F2472157
:1029400001200860FEF79AFE0390FFE743F60000BF
:10295000C4F20200006800F002010020B0EB510F49
:102960000CD1FFE7FEF78AFE0399401A032804D32F
:10297000FFE703208DF817003BE2E7E743F600018D
:10298000C4F20201086820F0F800049A126940EAD3
:10299000C200086021E00021C4F247210020086045
:1029A000FEF76CFE0390FFE743F60000C4F202005E
:1029B000006800F002010020B0EB510F0CD0FFE7DF
:1029C000FEF75CFE0399401A032804D3FFE70320B7
:1029D0008DF817000DE2E7E7FFE7FFE7FFE7049850
:1029E0000078000700284BD5FFE70498406918B32A
:1029F000FFE740F68061C4F2472101200860FEF73E
:102A00003DFE0390FFE743F67400C4F20200006845
:102A100000F002010020B0EB510F0CD1FFE7FEF7F0
:102A20002DFE0399401A032804D3FFE703208DF8F5
:102A30001700DEE1E7E722E040F68061C4F24721BB
:102A400000200860FEF71AFE0390FFE743F67400CB
:102A5000C4F20200006800F002010020B0EB510F48
:102A60000CD0FFE7FEF70AFE0399401A032804D3AF
:102A7000FFE703208DF81700BBE1E7E7FFE7FFE77B
:102A8000049800784007002840F1CE80FFE700203E
:102A90008DF8070043F64000C4F202000068C00051
:102AA000002815D4FFE7FFE70020009043F6400020
:102AB000C4F20200016841F080510160006800F03A
:102AC000805000900098FFE701208DF80700FFE795
:102AD00047F20000C4F200000068C005002822D4BC
:102AE000FFE747F20001C4F20001086840F480707B
:102AF0000860FEF7C3FD0390FFE747F20000C4F251
:102B000000000068C00500280CD4FFE7FEF7B6FD02
:102B10000399401A032804D3FFE703208DF8170018
:102B200067E1EAE7FFE7FFE704988068012809D139
:102B3000FFE743F67001C4F20201086840F00100AB
:102B400008601FE00498806805280DD1FFE743F670
:102B50007001C4F20201086840F0040008600868CF
:102B600040F0010008600CE043F67001C4F202017D
:102B7000086820F001000860086820F00400086080
:102B8000FFE7FFE7FFE704988068F8B1FFE7FEF78B
:102B900075FD0390FFE743F67000C4F20200006881
:102BA00000F002010020B0EB510F0ED1FFE7FEF75D
:102BB00065FD0399401A41F28931884204D3FFE749
:102BC00003208DF8170014E1E5E71EE0FEF756FD3F
:102BD0000390FFE743F67000C4F20200006800F0C3
:102BE00002010020B0EB510F0ED0FFE7FEF746FDCB
:102BF0000399401A41F28931884204D3FFE7032048
:102C00008DF81700F5E0E5E7FFE79DF807000128DC
:102C100009D1FFE743F64001C4F20201086820F041
:102C200080500860FFE7FFE704988069002800F003
:102C3000DC80FFE743F60800C4F20200006800F001
:102C40000C00082800F08580FFE7049880690228BE
:102C50005CD1FFE76021C4F2472100200860FEF745
:102C60000DFD0390FFE743F60000C4F20200006888
:102C700000F000710020B0EB516F0CD0FFE7FEF7C1
:102C8000FDFC0399401A032804D3FFE703208DF8C5
:102C90001700AEE0E7E70499C869D1F820C04B6A95
:102CA0008A6A40EA0C0040EA8310D2034FF6FF73B1
:102CB0009A43A2F580321043C96A40EA016043F6A4
:102CC0000401C4F2020108606021C4F2472101201E
:102CD0000860FEF7D3FC0390FFE743F60000C4F260
:102CE0000200006800F000710020B0EB516F0CD1C1
:102CF000FFE7FEF7C3FC0399401A032804D3FFE75C
:102D000003208DF8170074E0E7E721E06021C4F2AA
:102D1000472100200860FEF7B1FC0390FFE743F66F
:102D20000000C4F20200006800F000710020B0EB67
:102D3000516F0CD0FFE7FEF7A1FC0399401A03285E
:102D400004D3FFE703208DF8170052E0E7E7FFE721
:102D50004AE004988069012804D1FFE701208DF83A
:102D6000170046E043F60400C4F202000068029037
:102D700004988069012831D0FFE7029800F48000B0
:102D80000499C969884229D1FFE7029800F03F0001
:102D90000499096A884221D1FFE7029847F6C07179
:102DA00008400499496AB0EB811F17D1FFE70298E8
:102DB00000F440300499896AC9034FF6FF729143C9
:102DC000A1F58031884209D1FFE7029800F07060D8
:102DD0000499C96AB0EB016F04D0FFE701208DF8B8
:102DE000170006E0FFE7FFE7FFE700208DF8170078
:102DF000FFE79DF8170006B080BD000080B584B0E5
:102E0000029001208DF80700029820B9FFE7012009
:102E10008DF80F0063E00298407F38B9FFE7029910
:102E200000200877029800F05FF8FFE7029902207F
:102E30004877FFE702980168CA2048620298016853
:102E400053204862FFE7029801F0D2F88DF807009E
:102E50009DF8070020BBFFE70298016888684FF6DD
:102E6000BF72CFF68F7210408860029A1168506866
:102E700013695269184302438868104388600298B6
:102E80000168C0680861029801688268086940EAC0
:102E900002400861029801F0EDF88DF80700FFE7A5
:102EA0009DF8070080B9FFE702980168086C20F4DC
:102EB00080200864029801688269086C10430864E5
:102EC000029901204877FFE7FFE702980168FF2099
:102ED0004862FFE79DF807008DF80F00FFE79DF8B7
:102EE0000F0004B080BD000080B586B005900020C2
:102EF000049003900290019000900598006842F6BB
:102F00000001C4F20001884214D1FFE702200090C2
:102F10004FF4007003906846FFF718F918B1FFE707
:102F2000FEF736F8FFE740F63C61C4F24721012086
:102F30000860FFE706B080BD80B588B006900591B7
:102F4000049200200390FFE70698007F012804D137
:102F5000FFE702208DF81F007DE006990120087729
:102F6000FFE7FFE7069902204877049868B9FFE772
:102F700005984078C006002807D5FFE705994878EE
:102F800000F0EF000A304870FFE70498E0B9FFE76F
:102F90000598C07801F00AF8000400900598407880
:102FA00001F004F80146009840EA012001900598DC
:102FB000807800F0FBFF01460198084405990978E4
:102FC00040EA413003900CE005980178437882781C
:102FD000C078000440EA0320104440EA41300390E6
:102FE000FFE7FFE706980168CA2048620698016873
:102FF00053204862FFE7069800F0FAFF8DF80B00B7
:103000009DF80B0078B9FFE703984FF63F71C0F2C7
:10301000FF010840069909684860069801F02AF8FF
:103020008DF80B00FFE79DF80B0020B9FFE706992C
:1030300001204877FFE7FFE706980168FF20486214
:10304000FFE7FFE7069900200877FFE79DF80B00F0
:103050008DF81F00FFE79DF81F0008B080BD00003D
:1030600080B588B006900591049200200390FFE798
:103070000698007F012804D1FFE702208DF81F0089
:1030800095E0069901200877FFE7FFE706990220FF
:103090004877049840BBFFE70698006880684006C0
:1030A000002801D5FFE703E005990020C870FFE77D
:1030B0000598007800F07AFF0004009005984078A9
:1030C00000F074FF0146009840EA01200190059845
:1030D000807800F06BFF0146019808440599C97893
:1030E00040EA8150039018E0069800688068400626
:1030F000002801D5FFE703E005990020C870FFE72D
:10310000059908784B788A78C978000440EA03204A
:10311000104440EA81500390FFE7FFE706980168FA
:10312000CA2048620698016853204862FFE7069863
:1031300000F05EFF8DF80B009DF80B00F8B9FFE77B
:10314000039847F67F71C0F27F010840069909682D
:10315000086006980168886820F4802088600599D6
:10316000C868096940EA0102069801688868104346
:103170008860069800F07EFF8DF80B00FFE79DF851
:103180000B0020B9FFE7069901204877FFE7FFE72A
:1031900006980168FF204862FFE7FFE706990020D4
:1031A0000877FFE79DF80B008DF81F00FFE79DF8FB
:1031B0001F0008B080BD000080B584B002900020E0
:1031C000019002980168C86820F0A000C860FEF76E
:1031D00055FA0190FFE702980068C0688006002851
:1031E0000DD4FFE7FEF74AFA0199401AB0F57A7F4D
:1031F00004D9FFE703208DF80F0004E0EBE700207F
:103200008DF80F00FFE79DF80F0004B080BD0000AF
:1032100080B582B00190019801F03EFD02B080BD02
:1032200080B582B00090009820B9FFE701208DF8AA
:1032300007003EE00098806908B1FFE700E0FFE783
:10324000009890F83D0040B9FFE70099002081F810
:103250003C00009800F032F8FFE70099242081F844
:103260003D0000980168C86820F40050C8600098CC
:1032700001F0A8FD00980168086920F490400861F9
:1032800000980168486920F02A00486100980168A8
:10329000C86840F40050C860009900200864009A93
:1032A000202182F83D10009A82F83E108DF8070028
:1032B000FFE79DF8070002B080BD000081B00090DC
:1032C00001B0704780B58AB008900791ADF81A2018
:1032D000059300200290089890F83D00202840F0C7
:1032E0009080FFE7079820B1FFE7BDF81A0020B9EA
:1032F000FFE701208DF8270087E0FFE7089890F8A6
:103300003C00012804D1FFE702208DF827007CE073
:103310000899012081F83C00FFE7FFE708990020A9
:1033200008640899212081F83D00FEF7A7F9029072
:10333000BDF81A0008998884BDF81A000899C88455
:1033400008988068B0F5805F09D1FFE708980069A8
:1033500028B9FFE7002004900798039004E007983D
:10336000049000200390FFE7FFE70899002081F810
:103370003C00FFE7FFE70898C08C58B3FFE70898C8
:10338000029B05996A4611608021002201F0B8FD78
:1033900020B1FFE703208DF8270036E0049858B9E4
:1033A000FFE7039800886FF35F2008990968486079
:1033B00003980230039008E004980078089909689F
:1033C0004860049801300490FFE70899C88C0138E0
:1033D000C884D0E70898029B05996A46116040218D
:1033E000002201F08DFD20B1FFE703208DF82700BA
:1033F0000BE00899202081F83D0000208DF827007F
:1034000003E002208DF82700FFE79DF827000AB0AF
:1034100080BD0000FFE7FEE780B582B0019043F673
:103420004001C4F20201086820F40010086040F274
:103430000040C4F2020000904FF48071FDF73EFEA0
:1034400000984FF40071FDF739FE02B080BD000016
:1034500010B58EB00D90FFE70020079043F63000C6
:10346000C4F20200016841F002010160006800F04E
:10347000020007900798FFE74FF480700890122031
:1034800005900990012000900A90032001900B9074
:10349000042002900C9040F20040C4F2020003901D
:1034A00008A90491FDF720FFDDF800C0019B029AF6
:1034B00003980499DDF814E04FF400740894CDF8F3
:1034C00024E0CDF828C00B930C92FDF70DFFFFE729
:1034D0000020069043F64000C4F20200016841F467
:1034E00000110160006800F4001006900698FFE7E4
:1034F0000EB010BD82B0009000980068406900F4E2
:1035000080610120B0EB912F1ED1FFE70098016888
:103510006FF480604861009900200863009A2021C0
:1035200082F83D10009981F83E000099086C40F047
:1035300004000864FFE70099002081F83C00FFE7E1
:1035400001208DF8070003E000208DF80700FFE759
:103550009DF8070002B0704780B588B00690ADF8BE
:103560001610049203930698C06A029006980168A8
:10357000086840F4806008600298082809D0FFE7D6
:103580000298012805D0FFE7029810F5803F07D187
:10359000FFE706980168086840F4807008600DE055
:1035A0000698006B112807D1FFE7069801680868A4
:1035B00040F48070086000E0FFE7FFE70698049B96
:1035C00003996A4611604FF00111002200F070F972
:1035D00080B1FFE7069800680068C005002805D59F
:1035E000FFE706994FF400700864FFE703208DF8A9
:1035F0001F0082E006980069B0F5804F08D1FFE710
:103600009DF8160040F0010006990968086162E023
:10361000BDF8160000F44070C009F0300699096842
:1036200008610698049A039B0821C0F2010100F08A
:103630009FF920B1FFE701208DF81F005DE09DF8A4
:1036400016000699096808610698049A039B0221EE
:10365000C0F2010100F08CF920B1FFE701208DF8E4
:103660001F004AE0FFE700200190069800684069CB
:10367000019006980068806901900198FFE706981C
:103680000168086840F4807008600698049B0399FC
:103690006A4611604FF00111002200F009F980B173
:1036A000FFE7069800680068C005002805D5FFE719
:1036B00006994FF400700864FFE703208DF81F009F
:1036C0001BE0BDF8160000F44070C009F130069907
:1036D00009680861FFE70698049A039B0221C0F27B
:1036E000010100F045F920B1FFE701208DF81F002E
:1036F00003E000208DF81F00FFE79DF81F0008B0D1
:1037000080BD000080B588B00690ADF81610049218
:1037100003930698C06A02900298082809D0FFE730
:103720000298012805D0FFE7029810F5803F07D1E5
:10373000FFE706980168086840F4807008600DE0B3
:103740000698006B122807D1FFE706980168086801
:1037500040F48070086000E0FFE7FFE70698049BF4
:1037600003996A4611604FF00111002200F0A0F8A1
:1037700080B1FFE7069800680068C005002805D5FD
:10378000FFE706994FF400700864FFE703208DF807
:103790001F003CE006980069B0F5804F08D1FFE7B4
:1037A000BDF8160000F0FE000699096808611CE0EB
:1037B000BDF8160000F44070C009F03006990968A1
:1037C00008610698049A039B0821C0F2010100F0E9
:1037D000CFF820B1FFE701208DF81F0017E09DF81A
:1037E0001600069909680861FFE70698049A039B8A
:1037F0000221C0F2010100F0BBF820B1FFE7012077
:103800008DF81F0003E000208DF81F00FFE79DF8F2
:103810001F0008B080BD000080B584B00290019107
:103820000092FFE702980068406900F00401002060
:10383000B0EB910F33D1FFE70298FFF75BFE20B1A9
:10384000FFE701208DF80F002DE00198013028B32B
:10385000FFE7FDF713FF0099401A0199884203D84A
:10386000FFE70198C8B9FFE7029900200863029AB0
:10387000202182F83D10029981F83E000299086CDF
:1038800040F020000864FFE70299002081F83C0026
:10389000FFE701208DF80F0005E0FFE7C2E70020F9
:1038A0008DF80F00FFE79DF80F0004B080BD000009
:1038B00080B586B0DDF820C0049003918DF80B2010
:1038C0000193FFE79DF80E0001280CD1FFE7049853
:1038D00000684069BDF80C100840401AB0FA80F04A
:1038E000400900900BE0049800688069BDF80C1056
:1038F0000840401AB0FA80F040090090FFE70098B5
:103900009DF80B1088422AD1FFE70198013028B3B7
:10391000FFE7FDF7B3FE0899401A0199884203D8E2
:10392000FFE70198C8B9FFE7049900200863049AEB
:10393000202182F83D10049981F83E000499086C1A
:1039400040F020000864FFE70499002081F83C0063
:10395000FFE701208DF8170005E0FFE7B2E7002040
:103960008DF81700FFE79DF8170006B080BD000036
:1039700080B586B00490039102920193FFE79DF811
:103980000E0001280CD1FFE7049800684069BDF8DB
:103990000C100840401AB0FA80F0400900900BE08B
:1039A000049800688069BDF80C100840401AB0FA0D
:1039B00080F040090090FFE70098002858D1FFE709
:1039C00004980068406900F480610120B0EB912FF9
:1039D00024D1FFE704980168086840F4007008608B
:1039E000049801686FF480604861049900200863BE
:1039F000049A202182F83D10049981F83E00049930
:103A0000086C40F004000864FFE70499002081F886
:103A10003C00FFE701208DF817002DE002980130EF
:103A200028B3FFE7FDF72AFE0199401A0299884260
:103A300003D8FFE70298C8B9FFE70499002008639C
:103A4000049A202182F83D10049981F83E000499DF
:103A5000086C40F020000864FFE70499002081F81A
:103A60003C00FFE701208DF8170005E0FFE786E73F
:103A700000208DF81700FFE79DF8170006B080BD05
:103A800080B584B0029001910092FFE7029800682F
:103A9000406900F040010020B0EB911F4BD1FFE7DF
:103AA00002980068406900F010010120B0EB111F7E
:103AB0001CD1FFE7029801686FF01000486102997D
:103AC00000200863029A202182F83D10029981F8B3
:103AD0003E000299086C0864FFE70299002081F813
:103AE0003C00FFE701208DF80F0028E0FDF7C6FD40
:103AF0000099401A0199884203D8FFE70198C8B994
:103B0000FFE7029900200863029A202182F83D1005
:103B1000029981F83E000299086C40F02000086488
:103B2000FFE70299002081F83C00FFE701208DF8B3
:103B30000F0004E0AAE700208DF80F00FFE79DF8D2
:103B40000F0004B080BD000080B584B002900191E8
:103B50000092FFE7029800684069C1B20020B0EB14
:103B6000D11F33D1FFE70298FFF7C4FC20B1FFE774
:103B700001208DF80F002DE00198013028B3FFE7F8
:103B8000FDF77CFD0099401A0199884203D8FFE7B0
:103B90000198C8B9FFE7029900200863029A202122
:103BA00082F83D10029981F83E000299086C40F0BD
:103BB00020000864FFE70299002081F83C00FFE73D
:103BC00001208DF80F0005E0FFE7C3E700208DF826
:103BD0000F00FFE79DF80F0004B080BD80B590B0E6
:103BE00000200F900E900D900C900B90FFE700209E
:103BF0000A9043F63000C4F20200016841F004016B
:103C00000160006800F004000A900A98FFE7FFE7EF
:103C10000020099043F63000C4F20200016841F030
:103C200080010160006800F0800009900998FFE7BA
:103C3000FFE70020089043F63000C4F2020001685C
:103C400041F001010160006800F00100089008984F
:103C5000FFE7FFE70020079043F63000C4F20200C0
:103C6000016841F002010160006800F00200079065
:103C70000798FFE70020C4F2020002902221009181
:103C800000220592FDF7E2FC05984FF400510B91DC
:103C90004FF4041101910C910D9040F60000C4F214
:103CA00002000BA90391FDF71FFB009B02980399EB
:103CB000059A0B9301230C930D920E92FDF714FBC2
:103CC000019B02980399059A4FF0100CCDF82CC077
:103CD0000C930D92FDF708FB059A0A2004901146FB
:103CE000FEF712FA0498FEF705FA059A28200690C6
:103CF0001146FEF709FA0698FEF7FCF910B080BDF0
:103D000080B582B0019000208DF80300019A45F241
:103D10000041C4F200011160019A41F68021C0F215
:103D200006015160019988600199C860019A4FF4B9
:103D30008041116101994861019988610199C861C7
:103D4000019908620198FDF7DDFC20B1FFE7012031
:103D50008DF80300FFE79DF8030002B080BD00006E
:103D600080B588B0002100910791069105910491DA
:103D70000391029142F63050C2F20000019042F6E7
:103D80000002C4F20002026041607F228260FF22D2
:103D9000C260016141618161FFF730F818B1FFE74E
:103DA000FDF7F6F8FFE700208DF80C008DF80D0008
:103DB0008DF80E000690079042F63050C2F20000D7
:103DC00003A90122FFF74CF918B1FFE7FDF7E0F86E
:103DD000FFE701228DF808208DF809208DF80A20D0
:103DE00000208DF80B0042F63050C2F2000002A90C
:103DF000FFF7A2F818B1FFE7FDF7CAF8FFE708B030
:103E000080BD000080B500F02FF880BD80B500F0C7
:103E10004DF880BD80B582B0019000208DF8030080
:103E2000019A44F20041C4F200011160019A4FF47A
:103E3000E1215160019988600199C8600199086188
:103E4000019A0C215161019988610199C861019819
:103E5000FFF7E6F920B1FFE701208DF80300FFE747
:103E60009DF8030002B080BD80B582B000200190B3
:103E7000FCF7AEFC46F68920C0F6010012F06EF9A0
:103E80000198FCF7EFFD014642F65050C2F20000E7
:103E90000160006840B1FFE746F66620C0F6010009
:103EA00012F05CF9FFE7FEE702B080BD80B584B098
:103EB0000020029003A9FCF7E5FD029840F2800182
:103EC000C2F20001FCF7A2FD029840F29401C2F296
:103ED000000102220A601E224A60886001220192CB
:103EE000CA600A61FCF77CFD01990298FCF7E0FDCD
:103EF00042F65051C2F200010860FFE740F2B801FB
:103F0000C2F200010020FCF797FD014642F6505036
:103F1000C2F200000160006838B9FFE740F2B80063
:103F2000C2F2000011F08AFCFFE7FA20FDF7A4F8C6
:103F3000E4E70000FFE7FEE7FFE7FEE788B0079051
:103F400006910592079800F0070004900498C0F1CC
:103F50000700052803D3FFE70420019004E004983C
:103F6000C0F107000190FFE7019803900498043026
:103F7000062803D8FFE70020009003E004980338E8
:103F80000090FFE70098029006980399012202FA38
:103F900001F101390840029B984005999A40013A85
:103FA0001140084308B070477047000081B08DF899
:103FB000030000208DF80200FFE79DF803000A28A7
:103FC0000BD3FFE79DF8020001308DF802009DF849
:103FD00003000A388DF80300EFE79DF8020000F0B7
:103FE0000F019DF8030040EA011001B07047000086
:103FF00080B584B00390002002908DF807000398EC
:104000000068C068400600282FD4FFE703980168C5
:10401000C86840F08000C860FDF730FB0290FFE701
:1040200003980068C168002049060029009007D461
:10403000FFE79DF80700013818BF01200090FFE757
:104040000098C00780B1FFE7FDF718FB0299401AFE
:10405000B0F57A7F07D9FFE703990420487701205C
:104060008DF80700FFE7DBE7FFE79DF8070004B0E6
:1040700080BD000080B582B0019000208DF8030063
:1040800001980168C86820F08000C8600198006845
:104090008068800600280DD4FFE70198FFF78CF8B0
:1040A00038B1FFE701990420487701208DF803001B
:1040B000FFE7FFE79DF8030002B080BD70470000F6
:1040C00080B586B00590ADF81210039200208DF8EF
:1040D0000B00BDF812000146019120B1FFE70198E5
:1040E00001280AD013E00398800BADF8080005986A
:1040F000BDF8081010F008F90DE00398400AADF87B
:1041000008000598BDF8081010F0EAF803E0FC205C
:104110008DF80B00FFE79DF90B0006B080BD000095
:10412000B0B58EB00D900C910B920D9818300A908E
:1041300000208DF819008DF81800ADF816000C98C5
:10414000807C0B9988710C9880780B9948710C9839
:1041500090F896010B9981F878000C98B0F9081046
:10416000B0F90E00884205DAFFE70C98B0F90E00AE
:10417000049004E00C98B0F908000490FFE704985C
:10418000ADF81A00BDF81A000B99A1F87C000B9944
:10419000002008600C98C0780B9908710D9842F6C1
:1041A0006E21405C0B9981F87E000C98807C8DF824
:1041B00015009DF81500002804DCFFE701208DF8AC
:1041C000260004E09DF815008DF82600FFE700208A
:1041D0008DF82700FFE79DF827009DF826108842FC
:1041E0004FDAFFE70B989DF82710C1EBC10100EBF8
:1041F0008100083008900C9A9DF827004C2110FB94
:104200000120143007909DF91900C8B9FFE70D98F7
:104210009DF815100B9A12799DF82730DDF830C003
:104220009CF810C0079C089DEE46CEF80850CEF8CA
:104230000440CEF800C000F0F3F88DF81900FFE755
:104240000798C08A0B99A1F87A000898C07D88B9B0
:10425000FFE70898B0F91400BDF91610884209DD8F
:10426000FFE70898808AADF816009DF827008DF8C2
:104270001800FFE7FFE79DF8270001308DF82700C1
:10428000A9E70A9991F8830442F2E90288549DF85B
:1042900026008DF82700FFE79DF8270003281FDC84
:1042A000FFE70A989DF8271000EB410142F2D8027F
:1042B000002088520A999DF827200A4442F2E00320
:1042C000FF21D1540A999DF82720114442F2E402BB
:1042D0008854FFE79DF8270001308DF82700DBE7C1
:1042E0009DF91900F8B9FFE79DF8150001281ADBC0
:1042F000FFE70B989DF81810C1EBC10100EB81009E
:104300000830089004208DF814000D9808990C9A34
:104310009DF8143002EB4302B2F904200B9B7E336C
:10432000FCF7DCFBFFE79DF919000EB0B0BD000003
:10433000B0B58CB00B908DF82B108DF82A20099316
:1043400000208DF82300ADF81E0006900590049023
:104350009DF82B00032805D0FFE79DF82B000828C7
:1043600004D1FFE740208DF8210003E020208DF8E4
:104370002100FFE79DF82B009DF82A100DF1220285
:10438000FCF744FC8DF823009DF9230080B9FFE77A
:104390000B989DF822106B4604AA5A6005AA1A6071
:1043A0000DF11E0206AB08F035FA8DF82300FFE789
:1043B0009DF92300B0B9FFE70B989DF82210BDF8D6
:1043C0001E20069BDDF814C0049C099DEE46CEF825
:1043D0000850CEF80440CEF800C00FF0C7FF8DF8AB
:1043E0002300FFE79DF9230028B9FFE79DF821008E
:1043F0000B99C876FFE79DF9230038B9FFE79DF8D0
:104400002B000B9942F66C228854FFE70B9942F679
:104410006D22012088549DF923000CB0B0BD00002E
:1044200080B598B084461C981B981A98CDF85CC04B
:104430008DF85B108DF85A208DF859308DF85800A2
:10444000002005908DF85700179918311491149990
:1044500001F5987113910A901B9890F84A0000F0AA
:104460001F008DF84A009DF85B009DF84A101B9ACA
:10447000FCF75AFC014605981C9A11701B99098E8D
:1044800049020F910F991C9A91601B99898E4902DC
:10449000109110991C9AD1601B99898F49020E9135
:1044A0000E991C9A11611B99B1F846101C9A9182C1
:1044B0001B99B1F848101C9A51801B99B1F844100F
:1044C0001C9A91801C9988759DF85810481E069179
:1044D000032808D3FFE706980D2808D0FFE70698C1
:1044E000112808D1FFE71C990520C87507E01C9921
:1044F0000D20C87503E01C990020C875FFE71C98C3
:10450000C07DA8B9FFE79DF85B0088B9FFE71C995B
:10451000FF20C8751C99002088601C9908611C99AF
:1045200041F6FF7088821C9948801C998880FFE7BB
:104530001C98C07D20BBFFE7179842F66C21405CB9
:104540008DF833009DF8330002280AD0FFE79DF86C
:104550003300012805D0FFE79DF83300092807D173
:10456000FFE79DF84A00FCF783FC1C99C87506E03C
:104570009DF84A00FCF7BCFC1C99C875FFE7FFE7F3
:104580001B98808F40020E900E9817994FF42A5274
:1045900088501B98008E40020E900E98179942F694
:1045A000842288501798002103910DAA01F09AF9EE
:1045B00003999DF84A000638B0FA80F040098DF85A
:1045C000490017980DF1470201F066F903989DF82C
:1045D00047100129049008D1FFE79DF849000138F0
:1045E000B0FA80F040090490FFE7049800F0010061
:1045F0008DF846009DF84600179942F676228854B9
:104600001798012101910DAA01F06CF901999DF80B
:104610004A000438B0FA80F040098DF84800179835
:104620000DF1470201F038F99DF8471000200129EB
:10463000029008D1FFE79DF848000138B0FA80F0F9
:1046400040090290FFE7029800F001008DF8460053
:104650009DF84600179942F6772288541C98808A64
:10466000ADF830001C98C07DC8B9FFE7BDF9300037
:10467000B0F1FF3F13DCFFE7BDF9300040F2040169
:10468000C2F200014968884204DAFFE71C990E2053
:10469000C87503E01C9900208882FFE7FFE71798A0
:1046A00048F2BE0108AA08F0AFFA089807909DF8F2
:1046B000590001280EDBFFE71C98C07D50B9FFE7C9
:1046C0001C9880680799884204D2FFE71C990C2047
:1046D000C875FFE7179848F291010AAA08F094FA02
:1046E0009DF85A0000F001008DF84B0000208DF875
:1046F00027001C99898AADF82C10ADF824001C996C
:1047000008769DF85B00012807D1FFE7149842F274
:10471000E801405C012803D0FFE700200A90FFE792
:104720000A98002800F09182FFE71C98C07D0728B6
:1047300006D0FFE71C98C07D042840F08682FFE782
:1047400014989DF85910084442F2E001405C072893
:1047500020D0FFE714989DF85910084442F2E00178
:10476000405C042816D0FFE714989DF859100844BF
:1047700042F2E001405C002840F06782FFE71498B5
:104780009DF85910084442F2E401405C012840F0D1
:104790005C82FFE7149942F2E900085C91F8831407
:1047A000013988420BD0FFE7149942F2E900085C16
:1047B00091F883147F31884240F02982FFE71C98EA
:1047C000808A14999DF8592001EB420142F2D802E7
:1047D000895A401AADF82E0001208DF82700149850
:1047E0004078014600911B2800F04681FFE70098C1
:1047F0001E2809D0FFE70098212840F00382FFE738
:1048000000208DF8270001E2BDF92E001399B1F9BF
:104810008E10884213DDFFE7BDF92E001399B1F920
:10482000901088420BDAFFE79DF84B00012806D173
:10483000FFE71398B0F8A800ADF824001BE1BDF91C
:104840002E001399B1F98E104942884213DAFFE71E
:10485000BDF92E001399B1F99010494288420ADD42
:10486000FFE79DF84B0030B9FFE71398B0F8A600BA
:10487000ADF82400FEE0BDF92E001399B1F99210B5
:10488000884212DDFFE7BDF92E001399B1F99410AB
:1048900088420ADAFFE79DF84B0030B9FFE713982A
:1048A000B0F8AA00ADF82400E3E0BDF92E0013999A
:1048B000B1F992104942884214DAFFE7BDF92E009F
:1048C0001399B1F99410494288420BDDFFE79DF836
:1048D0004B00012806D1FFE71398B0F8AC00ADF803
:1048E0002400C5E0BDF92E001399B1F99610884255
:1048F00013DDFFE7BDF92E001399B1F99810884236
:104900000BDAFFE79DF84B00012806D1FFE713986B
:10491000B0F8B000ADF82400A9E0BDF92E0013995D
:10492000B1F996104942884213DAFFE7BDF92E002B
:104930001399B1F99810494288420ADDFFE79DF8C2
:104940004B0030B9FFE71398B0F8AE00ADF8240083
:104950008CE0BDF92E001399B1F99A10884212DD4E
:10496000FFE7BDF92E001399B1F99C1088420ADACD
:10497000FFE79DF84B0030B9FFE71398B0F8B2009D
:10498000ADF8240071E0BDF92E001399B1F99A1029
:104990004942884214DAFFE7BDF92E001399B1F9B4
:1049A0009C10494288420BDDFFE79DF84B0001282F
:1049B00006D1FFE71398B0F8B400ADF8240053E037
:1049C000BDF92E001399B1F9A01088420EDAFFE765
:1049D000BDF92E001399B1F99E10884206DDFFE75C
:1049E0001398B0F8B600ADF824003CE0BDF92E00F5
:1049F0001399B1F9A210884213DDFFE7BDF92E002B
:104A00001399B1F9A41088420BDAFFE79DF84B0027
:104A1000012806D1FFE71398B0F8BC00ADF82400D8
:104A200020E0BDF92E001399B1F9A2104942884245
:104A300013DAFFE7BDF92E001399B1F9A41049422A
:104A400088420ADDFFE79DF84B0030B9FFE7139875
:104A5000B0F8BA00ADF8240003E000208DF827007C
:104A6000FFE7FFE7FFE7FFE7FFE7FFE7FFE7FFE716
:104A7000FFE7FFE7FFE7C9E0BDF92E001399B1F9A1
:104A8000BE10884212DDFFE7BDF92E001399B1F97F
:104A9000C01088420ADAFFE79DF84B0030B9FFE703
:104AA0001398B0F8D200ADF82400AAE0BDF92E00AA
:104AB0001399B1F9BE104942884214DAFFE7BDF9F3
:104AC0002E001399B1F9C010494288420BDDFFE76F
:104AD0009DF84B00012806D1FFE71398B0F8D400E9
:104AE000ADF824008CE0BDF92E001399B1F9C21085
:104AF000884213DDFFE7BDF92E001399B1F9C41008
:104B000088420BDAFFE79DF84B00012806D1FFE74A
:104B10001398B0F8D800ADF8240070E0BDF92E006D
:104B20001399B1F9C2104942884213DAFFE7BDF97F
:104B30002E001399B1F9C410494288420ADDFFE7FB
:104B40009DF84B0030B9FFE71398B0F8D600ADF8E8
:104B5000240053E0BDF92E001399B1F9C810884222
:104B60000EDAFFE7BDF92E001399B1F9C61088429D
:104B700006DDFFE71398B0F8DA00ADF824003CE05A
:104B8000BDF92E001399B1F9CA10884213DDFFE771
:104B9000BDF92E001399B1F9CC1088420BDAFFE76A
:104BA0009DF84B00012806D1FFE71398B0F8E0000C
:104BB000ADF8240020E0BDF92E001399B1F9CA1018
:104BC0004942884213DAFFE7BDF92E001399B1F983
:104BD000CC10494288420ADDFFE79DF84B0030B90E
:104BE000FFE71398B0F8DE00ADF8240003E00020E2
:104BF0008DF82700FFE7FFE7FFE7FFE7FFE7FFE7A5
:104C0000FFE703E000208DF82700FFE7FFE79DF8AE
:104C10002700C8B1FFE7BDF824201C99888A1044FA
:104C20008882BDF824201C99888810448880BDF8AB
:104C300024201C994888104448801C99012008763B
:104C40001C990020C875FFE7FFE7BDF82C001499F8
:104C50009DF8592001EB420142F2D80288521C987B
:104C6000C07D14999DF85920114442F2E002885405
:104C70001C98007E14999DF85920114442F2E402D8
:104C800088549DF85B00149942F2E80288549DF91B
:104C9000570018B080BD000080B582B00090009829
:104CA0000138B0F1807F03D3FFE70120019019E0C4
:104CB000009801384EF21401CEF2000108604FF066
:104CC000FF300F2110F030FD4EF21801CEF200013E
:104CD000002008604EF21002CEF20002072111609F
:104CE0000190FFE7019802B080BD000080B5FDF79C
:104CF00073F980BD80B594B008A83021FBF7E1FAC4
:104D0000002007900690059004900390FFE7002094
:104D1000029043F64000C4F20200016841F0805165
:104D20000160006800F0805002900298FFE7FFE702
:104D30000020019047F20000C4F200000168022246
:104D400062F38F310160006800F4404001900198E7
:104D5000FFE70A20089001210B9110200C900D9183
:104D600002210E9100210F9110904FF4A870119024
:104D7000042012900720139008A8FDF7DFFC18B15B
:104D8000FFE7FCF705F9FFE70F20039002210491EC
:104D9000002005904FF480520692079003A8FDF77B
:104DA000FDFA18B1FFE7FCF7F3F8FFE714B080BD98
:104DB0004EF68851CEF20001086840F47000086099
:104DC0007047000080B586B00590059800680069BE
:104DD00020F44050059A1168D26810430861059983
:104DE00088680B694A69C9691843104308430490ED
:104DF00005980068C06849F20C618843049908432B
:104E000005990968C86005980068406920F44070F9
:104E1000059A11689269104348610598006841F24B
:104E20000001C4F20101884209D0FFE7059800683B
:104E300041F20041C4F20101884204D1FFE7FDF7CD
:104E4000F7FB039003E0FDF7E1FB0390FFE7059814
:104E5000C069B0F5004F29D1FFE703981921A0FBE5
:104E60000101059A1368029353685A00DB0FFBF7A0
:104E7000ADF90299864648F21F53C5F2EB13AEFB1B
:104E80000320420910014FF0640C02FB1CEC32229B
:104E900002EBCC02A2FB0332F82303EA521300EB2D
:104EA0004300C2F342121044886026E0039819219F
:104EB000A0FB0101059A1368019353689A009B0FA8
:104EC000FBF784F90199844648F21F52C5F2EB12B0
:104ED000ACFB02304309642003FB10CC322000EB12
:104EE0000C10A0FB0202F02000EA521000EB0310AD
:104EF000C2F3431210448860FFE706B080BD000093
:104F000080B588B0DDF828C0069005918DF8132093
:104F10000393FFE706980068006805990840401A67
:104F2000B0FA80F040099DF81310884249D1FFE79C
:104F30000A980130002843D0FFE70A9840B1FFE704
:104F4000FCF79CFB0399401A0A99884237D9FFE77E
:104F5000FFE7FFE70698006850E8030F20F4D070E1
:104F60000290FFE702990698026842E803100028C1
:104F7000F0D1FFE7FFE7FFE7FFE70698006850E89A
:104F8000050F20F001000190FFE7019906980268E3
:104F900042E805100028F0D1FFE7FFE7069920203E
:104FA00081F83D00069981F83E00FFE70699002050
:104FB00081F83C00FFE703208DF81F0005E0FFE7C4
:104FC000A8E700208DF81F00FFE79DF81F0008B03C
:104FD00080BD000080B58EB00D90FFE700200790E7
:104FE00043F64000C4F20200016841F40031016060
:104FF000006800F4003007900798FFE7FFE7002003
:10500000069043F63000C4F20200016841F001014D
:105010000160006800F0010006900698FFE7042098
:105020000890022001900990002002900A900B90B5
:10503000072003900C900020C4F20200049008A9FD
:105040000591FCF751F9DDF804C0029B039A04981E
:1050500005994FF0080ECDF820E0CDF824C00A9352
:105060000B930C92FCF740F90EB080BDFFE7FEE712
:1050700084B00390039842F2081108440290002083
:105080008DF8070010218DF80610029901F5D071F6
:1050900000918DF80700FFE79DF807009DF80610C6
:1050A000884219DAFFE700989DF8071001EB8101AB
:1050B00000EB41010120087100989DF8071001EBF9
:1050C000810100EB41010020C880FFE79DF8070047
:1050D00001308DF80700DFE704B0704784B08DF829
:1050E0000F00029100208DF80700029A1021117024
:1050F0009DF80F10029A51708DF80700FFE79DF898
:1051000007000299097888421BDAFFE702989DF8A8
:10511000071001EB011100EB8100043000900099B1
:1051200003200870009948700099042008710099C4
:1051300000204871FFE79DF8070001308DF8070057
:10514000DDE704B07047000082B0019000916FF07D
:10515000030002B07047000080B586B00490039150
:10516000049840B1FFE7039828B1FFE7039800785F
:105170008DF8070003E06FF00100059045E09DF811
:10518000070001280ED0FFE79DF80700022809D08C
:10519000FFE79DF80700032804D0FFE76FF0010048
:1051A00002902FE004989DF8071000F08DFE20B1CA
:1051B000FFE74FF0FF30029023E00498039949681D
:1051C0004FF47A72514300F071FF20B1FFE74FF0C6
:1051D000FF30029014E00398C068002818BF012037
:1051E000049942F68C22885403980069002818BF5D
:1051F0000120049942F68D22885400200290FFE796
:10520000FFE7FFE702980590FFE7059806B080BD2D
:1052100080B594B013901291139818B1FFE71298CB
:1052200020B9FFE76FF00100119020E001208DF818
:105230000000129880788DF803001298C0788DF8DD
:105240000400129800788DF80100129840788DF8CB
:1052500002001398694601F07FF820B1FFE74FF094
:10526000FF30119002E000201190FFE7FFE7119856
:1052700014B080BD80B582B001904FF0FF30009037
:10528000019842F68821405C012811D1FFE701987E
:105290004068804720B1FFE74FF0FF30009006E004
:1052A00000200090019942F688228854FFE7FFE72A
:1052B000009802B080BD000083B002900191029876
:1052C00018B1FFE7019820B9FFE76FF001000090E7
:1052D00006E0029800890199086000200090FFE72D
:1052E000009803B07047000083B0029001910298CB
:1052F00018B1FFE7019820B9FFE76FF001000090B7
:105300000CE0019901200860019A04215160019983
:10531000886001990020C8600090FFE7009803B002
:105320007047000080B584B003900291039818B1D3
:10533000FFE7029820B9FFE76FF0010001903DE020
:10534000039842F68921405C20B9FFE74FF0FF3017
:10535000019032E0039842F68A21405C012807D18F
:10536000FFE703984FF6FF7110F0C6FE019005E0CD
:105370000398002110F0C0FE0190FFE70198D8B912
:10538000FFE70398029910F081FD20B1FFE74FF08D
:10539000FF3001900FE0039842F68B21405C01281A
:1053A00005D1FFE7039800F0CFF9019002E000205B
:1053B0000190FFE7FFE7FFE7FFE7FFE7019804B091
:1053C00080BD000082B0019000916FF0030002B038
:1053D0007047000080B582B00190019842F68821A4
:1053E000405C20B1FFE74FF0FF30009043E00198B0
:1053F00001F0E8F920B1FFE74FF0FF30009039E00D
:10540000019800F0B7F920B1FFE74FF0FF300090AE
:105410002FE0019801F084F920B1FFE74FF0FF3051
:10542000009025E0019800F0FFFB20B1FFE74FF06E
:10543000FF3000901BE0019942F689220020885439
:10544000019942F68A228854019942F68B228854A7
:10545000019942F68C228854019942F68D22885493
:10546000019A42F688230121D1540090FFE7FFE71B
:10547000FFE7FFE7FFE7009802B080BD70B588B096
:105480005220ADF8100040F6A500C0F600000290D2
:1054900040F65100C0F60000039040F67D10C0F6C3
:1054A0000000059040F61D10C0F60000069040F682
:1054B0004900C0F60000079040F20810C2F2000058
:1054C00002A900F04FF840B940F20814C2F20004FB
:1054D00001A9204600F02AF818B16FF0040008B0C6
:1054E00070BD01984EF6CC2188421AD140F23806A0
:1054F000C2F2000640F27C053168C2F20005204687
:105500002C6088470028E8D1F268286840F2A8019A
:10551000C2F200019047002818BF6FF0040008B0E5
:1055200070BD6FF0060008B070BD000080B584B09B
:1055300003900291039818B1FFE7029820B9FFE7A2
:105540006FF0010001900AE00299002008600398C2
:10555000029A40F20F1100F025FC0190FFE701983C
:1055600004B080BD80B584B003900291039820B947
:10557000FFE76FF00100019025E0029800680399B1
:10558000086002984068039948600298008903996E
:1055900008810298C0680399C8600298006903995D
:1055A000086102984069039948610398006828B12E
:1055B000FFE7039800688047019003E04FF0FF3059
:1055C0000190FFE7FFE7019804B080BD80B584B08B
:1055D00003900291039820B9FFE76FF0010001905A
:1055E00011E003989DF8081000F04CFC20B1FFE793
:1055F0004FF0FF30019005E00298039908810020E8
:105600000190FFE7FFE7019804B080BD82B00190F0
:1056100000916FF0030002B07047000080B584B0C5
:1056200003900291039820B9FFE76FF00100019009
:105630005CE0039842F68921405C012804D1FFE731
:105640004FF0FF30019050E0039800F0B7FF0028C2
:1056500046D1FFE7039942F68922012088540020B1
:105660000190029801380146009103282ED8009934
:10567000DFE801F0020C1722039942F68B22012089
:105680008854039942F68A22885428E0039942F606
:105690008B2200208854039942F68A2201208854E4
:1056A0001DE0039942F68B2201208854039942F6AB
:1056B0008A220020885412E0039942F68B220020AF
:1056C0008854039942F68A22885408E0039942F6E6
:1056D0008922002088546FF001000190FFE703E069
:1056E0004FF0FF300190FFE7FFE7FFE7019804B0BC
:1056F00080BD000080B582B00190019820B9FFE71D
:105700006FF0010000901BE0019842F68921405C97
:1057100020B9FFE74FF0FF30009010E0019801F052
:105720002BF838B9FFE7019942F689220020885406
:10573000009003E04FF0FF300090FFE7FFE7FFE746
:10574000009802B080BD000080B582B001900020BA
:105750008DF803000198C07E8DF8020001989DF835
:10576000021001F081FD8DF803009DF9030002B0E5
:1057700080BD000080B584B0039000208DF80B0040
:105780009DF90B0038B9FFE70398012102F0C6F834
:105790008DF80B00FFE79DF90B0060B9FFE7039858
:1057A00018300190019A41F64843D1180020D0509A
:1057B00088604860FFE79DF90B0030B9FFE7039967
:1057C00042F6682201208854FFE700208DF80A0085
:1057D000FFE79DF80A00012819DCFFE79DF90B009F
:1057E00068B9FFE703989DF80A10012200F01AFC3F
:1057F00001469DF80B0008438DF80B0000E006E021
:10580000FFE79DF80A0001308DF80A00E1E79DF9F5
:105810000B0038B9FFE7039802210EF09FFC8DF8CA
:105820000B00FFE79DF90B0004B080BD80B584B08C
:10583000039002910398406980470190FFE7039825
:10584000406980470199401A0299884201D2FFE7D6
:10585000F5E7002004B080BD80B584B003900291CC
:1058600000208DF807000398694606F095FE8DF834
:1058700007000098810144F6D352C1F26202A1FBF5
:105880000221A0EB911000900098029908609DF908
:10589000070004B080BD000084B00390ADF80A108A
:1058A000019200208DF80300BDF80A00022807DBF2
:1058B000FFE7FC208DF803000199002008700DE03F
:1058C0000398BDF80A10084442F67421405C8DF834
:1058D00002009DF8020001990870FFE79DF903009E
:1058E00004B0704780B588B00790ADF81A100592E3
:1058F00000208DF813000390BDF81A0001460191B5
:1059000020B1FFE7019801280CD016E007980DF1AF
:105910000A0106F079FE8DF81300BDF80A00800335
:1059200003900EE0079804A906F05CFE8DF81300C2
:10593000BDF810004002039003E0FC208DF8130036
:10594000FFE79DF9130070BBFFE70398A8B9FFE7D5
:105950000798BDF81A1000EB810042F678214058F4
:1059600003900398059908600798BDF81A10014440
:1059700042F674220020885414E0039805990860C8
:1059800003980799BDF81A2001EB820142F67822AC
:1059900088500798BDF81A10014442F6742201207D
:1059A0008854FFE7FFE79DF9130008B080BD0000B1
:1059B00080B584B00390029100208DF80700039811
:1059C00002990BF037FA8DF807009DF9070004B033
:1059D00080BD000080B58EB00D900C91002002902B
:1059E0008DF82F008DF82E008DF82D000A9009906B
:1059F000089007900C9908609DF92F0048B9FFE7BF
:105A00000D9805210DF12E0200F0E8F88DF82F0019
:105A1000FFE79DF92F0048B9FFE70D9806210DF12A
:105A20002D0200F0DBF88DF82F00FFE79DF92F0025
:105A300048B9FFE70D9807A90AAA09AB07F07CF857
:105A40008DF82F00FFE79DF92F00002840F07880A7
:105A5000FFE70D9842F66C21405C8DF81B009DF825
:105A60001B00013801460191082864D80199DFE83C
:105A700001F051511B0562625A3451009DF82E000D
:105A8000012805D0FFE79DF82D00012806D1FFE78A
:105A9000099841F288310844089004E0099800F51B
:105AA0007A700890FFE74AE09DF82E00012805D0A3
:105AB000FFE79DF82D00012807D1FFE7099946F27D
:105AC000E87000EB4100089006E0099945F260405B
:105AD00000EB41000890FFE731E0F52004900D98BD
